:10000000408200201DB501001FF50200F1B401007F
:10001000F1B40100F1B40100F1B4010000000000EE
:1000200000000000000000000000000059B10100C5
:10003000F1B401000000000005B10100F1B40100BD
:1000400009B20100D93C030009B2010009B2010064
:1000500009B2010009B2010009B2010009B20100B0
:10006000873C030009B2010009B20100BF3C030054
:1000700009B2010009B2010009B2010009B2010090
:1000800009B2010009B2010009B2010009B2010080
:1000900009B2010009B2010009B2010009B2010070
:1000A00009B2010009B2010009B2010009B2010060
:1000B00009B2010009B2010009B2010009B2010050
:1000C00009B2010009B2010009B2010009B2010040
:1000D00009B2010009B2010009B2010009B2010030
:1000E00009B2010009B2010009B2010009B2010020
:1000F00009B2010009B2010009B2010009B2010010
:1001000053B94AB9002908BF00281CBF4FF0FF317E
:100110004FF0FF3000F00CB8ADF1080C6DE904CEE3
:1001200014F042F9DDF804E0DDE9022304B0704781
:10013000704700BF1FB51A4C207A8DF80100E07996
:100140008DF80000A079ADF804006079ADF80200E8
:1001500068460DF039FB08B1AD211CE0E068029063
:1001600002A80DF047FB08B1B12114E00D4800686A
:10017000039003A817F057FC08B1B5210BE0A07E4F
:100180000DF06AFB08B1BE2105E0607E0DF05EFB5C
:10019000002803D0BF21032000F05EFA1FBD00003D
:1001A00058180020240700003EB504460068C01D12
:1001B00020F0070020600020009001900290087855
:1001C0008DF8010048788DF8020088788DF80300DA
:1001D000C8788DF8040008798DF80500C87D8DF881
:1001E0000600487F8DF80800887F8DF80900C87FD9
:1001F0008DF80A0091F820008DF80B00084840792E
:1002000010B108798DF807000AB1002000E02068DD
:10021000694601F0DBF82168084420603EBD00001B
:1002200040000020F8B50446887816460D4688B18F
:100230002068C01C20F003002060E97DEA786B8A0A
:100240001144CAB2A97806B1002001F0B3FB2168BD
:1002500008442060654FF87898B1287C88B13879D7
:1002600008B1FF2200E025222068C01C20F0030016
:100270002060297C06B1002001F030FC2168084490
:100280002060287D90B1A87818B9F87870B1287CE2
:1002900060B12068C01D20F007002060297D06B1F4
:1002A000002003F085FF216808442060504803685F
:1002B00073B1287960B12068C01C20F00300206071
:1002C0006A7D297906B1002098472168084420609A
:1002D000484802686AB1A87D58B12068C01C20F067
:1002E00003002060A97D06B10020904721680844E2
:1002F00020604148D0F800C0BCF1000F11D0E87D6B
:1003000078B12068C01C20F003002060A97E009115
:100310006B7E2A7EE97D06B10020E0472168084413
:100320002060787978B1287968B12068C01C20F005
:10033000030020602A7F297906B1002001F0F4FB38
:1003400021680844206095F82100B8B12068C01DDC
:1003500020F0070020605EB195F821105FF00000EA
:100360004FF4887214F031FE21680844206009E0DF
:100370000FF0F8FE95F821102068F1E716B900207B
:100380000FF0F0FE95F8220038B32068C01D20F071
:100390000700206095F8221006B10020FF2214F01B
:1003A00014FE276833463844C01C20F0030040F098
:1003B00004022260A97F012001F0E8FB2168002EE1
:1003C0000844206010D138460FF0D2FE95F8220084
:1003D000BDE8F840FB210FF0D1BE002E04D1BDE8EE
:1003E000F84000200FF0C4BEF8BD0000400000201F
:1003F0004C000020540000205000002010B528B10F
:100400001422044918F03EFC002010BD6FF01500C6
:1004100010BD00004C0700002DE9F0416FF02C06E4
:10042000002871D1474C607810B1B011BDE8F0815F
:10043000002976D06FF01500002AF7D0424B112921
:100440009D7879D2DFE801F078090C0F1F224A521B
:1004500069285558642D323F45001078187060E0C7
:10046000107858705DE091780029DFD0D1780029AC
:10047000DCD011781B29D9D351781B29D6D3106829
:10048000C3F805004DE01068D8604AE01178DA78CA
:100490009142CBD3997044E01178A942C6D8D97063
:1004A0003FE01178A942C1D8D9753AE01178002906
:1004B000BCD05178F929B9D80029B7D01088188351
:1004C000907898762DE01078D87610780DF03AFE76
:1004D00027E011780029A9D0197722E0E17811B13D
:1004E00011780229A2D3107818741AE01088588263
:1004F00017E01078187114E061790029117804D0A0
:10050000002993D059750CE016E002298ED3F9E743
:10051000117808298AD8997503E01188FF2985D8B0
:10052000197501220849002014F08EF8B0F5803FBB
:1005300004DB6FF00B0079E7304677E70121A1700B
:1005400074E70000400000205818002010B5074C48
:10055000607820B10DF01EFD207813F077FD01F0DA
:1005600073FB01F04BFC0020607010BD40000020C8
:1005700070B50C46050002D00CB1600702D06FF0D8
:10058000150070BD00F008F9A8B1284613F024FD4D
:100590000A4D00220A492870204614F055F818F038
:1005A0000FF8002128780DF0D1FCFFF7C3FD0120E2
:1005B0006870002070BD4FF0FF3070BD400000201B
:1005C0005818002030B589B005000CD013F0ACFCF1
:1005D0004FF0FF3420B113F03FFBB0F5FA7F05D99F
:1005E000204609B030BD6FF01500FAE7154C1648EB
:1005F000A56000F08BFD00206070A070E07020719D
:10060000607101462422684618F0B6FB24220F4987
:10061000684618F037FB242269460D4818F032FB73
:10062000EFF3108472B601F01DFB0A4801F0F2FBF3
:1006300018B1CB21032000F00FF804B962B60020F6
:10064000CFE700004000002035010000280700002F
:1006500058180020C50700000EB572B6154A9568F7
:10066000DDB1002203466E460A2403E0B0FBF4F03D
:10067000521CD2B20028F9D1B0540AE0D8B2B0FB73
:10068000F4F7B3FBF4F304FB1700521ED2B2303080
:10069000B054002AF2D13046A847BFF34F8F064826
:1006A0000168064A01F4E06111430160BFF34F8F16
:1006B00000BFFDE7400000200CED00E00400FA055B
:1006C000064810B581784078014302D04FF0FF30E2
:1006D00010BD0DF071FC002010BD00004000002096
:1006E000074810B581784278114302D04FF0FF30AF
:1006F00010BD0121C17001710DF070FC002010BD12
:1007000040000020064810B581784078014302D0AF
:100710004FF0FF3010BD17F0F5FA002010BD0000BB
:10072000400000200100000001010100001B1B032C
:10073000020000004C1D000003001F000802000022
:10074000014900000100000000000000E07E2EC111
:100750005E0585234615DCFA8E297D701093A5FC75
:10076000054A10B5526812B1BDE8104010479221F9
:100770000420FFF771FF00007C180020054A10B527
:10078000926812B1BDE81040104798210420FFF78D
:1007900063FF00007C1800200548016829B141680A
:1007A00019B1806808B1012070470020704700002F
:1007B0007C18002002490DC881E80D000020704718
:1007C0007C180020F8B5124C0026256811E000982E
:1007D000022802D003280CD106E0206810B10020C6
:1007E000266005E028210CE0206868B10120266021
:1007F000A847684601F0D4FA0028E8D0052805D0BB
:1008000035210420FFF728FF2D21FAE7F8BD00006D
:10081000580000202DE9FC41334E0546001D06F529
:1008200084773060387858B1BA783C46791C2846CD
:10083000921C18F027FA002020700420BDE8FC81EB
:10084000294802F059FF0446022804D0042C07D09E
:10085000082C42D045E02449284613F047FF40E0E9
:1008600030780A2802D0262815D10FE005213E2035
:1008700000F03EF878B9B088ADF8000001A96846EC
:1008800014F079F80028CDD0A8210CE01A213E20E0
:1008900000F02EF850B11449284600F04DF8B0F59C
:1008A000817F11D3C7210820FFF7D6FE0F4801A989
:1008B00000680090F088ADF80000684614F06FF80A
:1008C0000028AFD0BA21EEE70028ABD0A97828786D
:1008D00000F00EF80028A5D003E00349284613F0E5
:1008E00033FF2046AAE700008818002034090000E2
:1008F00070B50C46054600F0B3FB002802D03E2D33
:1009000001D0012070BD122C06D1064801780229C1
:1009100002D040780028F5D02046BDE8704000F0B5
:10092000B1BB00000C040020014948707047000072
:100930000C040020000011002DE9F84F044691F846
:1009400000C00D4600203E26A21CE31CFF274FF0EE
:1009500010094FF0030E4FF01A0B04F10D014FF088
:10096000120ABCF1320F75D2DFE80CF074334B4E33
:1009700052FD74ADB6C4FEFBFAF9F8F7F6197475BA
:100980007492F5F4F3F274F174F0EFEEED74ECEBB5
:10099000EAE9E8E7E6E5E4E3E2E1E0DF74DE0E2021
:1009A00020706879E070B5F80500000A2071287998
:1009B000A070B5F805008338B0F5005F03D036218C
:1009C000C720FFF749FE7246E91D601D18F05AF96D
:1009D000FEE20C2020702879A0706879E070B5F8EC
:1009E0000500000A2071E8796071287AA0712889D1
:1009F000000AE071A87A20726889000A60720820F3
:100A00007FE284F8009001E084F800B028793AE1B0
:100A100026700220A07015F8040FE070A87A2071EB
:100A200068786071D5F80200C4F80600E888608133
:100A3000287A20732E7A1F2E00D31F2608463246AE
:100A400005F10B0118F01EF90D36697AA155761ED5
:100A5000F0B254E258E226700B20A0702879E070C2
:100A600068792071A8796071D5F80700C4F806008C
:100A7000B5F80B006081687B2073D5F80E00C4F8D0
:100A80000D00688AA4F81100287DE074504638E211
:100A9000292000F0F7FA48B126702920A070212201
:100AA000291DE01C18F0EEF822202AE20A2000F0AE
:100AB000E9FA00282946204602D013F0A5FE1EE2DE
:100AC00013F079FE1BE226701420A0702879E070E4
:100AD000A888000A207157E13E2020700420107081
:100AE00068681860A8685860A8891881A87B9872FF
:100AF0000C2006E2267084F802E02879E070A879DC
:100B00002071E888000A6071287AA0712889000A9B
:100B1000E071A87A20726889000A6072287BA0724E
:100B2000A889000AE07245E254E227E208E233E2D3
:100B300042E2FAE1EAE1C5E1B9E1EFE1A5E14EE126
:100B400024E11BE10DE1F5E0F1E0E9E0BFE0ADE01B
:100B500097E09BE042E03EE053E04DE031E025E0ED
:100B600018E015E000E055E026700520A070287917
:100B7000E070A888000A2071D5F80600C4F80500C6
:100B8000D5F80A00C4F80900E889A4F80D0036E297
:100B9000112037E0052020702879A0706879E07076
:100BA000B5F80500000A2071E879C6E10820207038
:100BB0002879A070A879E070E888000A2071287A66
:100BC000BBE1302020702879A070A879E070E88817
:100BD000000A2071A0E126700720B3E126700C20E6
:100BE000A0702879E070A8792071E888000A607107
:100BF000287AA071687A56E0291D204600F002FA92
:100C00007DE1572020702879A070A888000AE07044
:100C1000022076E126700D22A2702A79E270EA891C
:100C2000A2806A79A271D5F80620C4F807206A89E3
:100C3000A4F80B202A7C20466273291D6A7C8273EB
:100C40008A7BC2738A7E02744A7A4274B1F8112098
:100C5000ADF800204282CA7C02754A69C0F81520AE
:100C60000A8BA0F819200A7AC2760D7AE52D00D3F6
:100C7000E5252A461C301C3118F004F81A35E8B274
:100C80003DE126701120A07001203AE1267084F821
:100C900002A02879E07068792071A8796071E888ED
:100CA000000AA071287AE07106202AE1267024202B
:100CB00000F0E8F908B124205DE00E20A0700F26B6
:100CC0003246291DE01C17F0DDFF701C17E126706D
:100CD000252000F0D7F940B12520A0700A26324621
:100CE000291DE01C17F0CEFF0FE00F20A070A9888F
:100CF000A4F80310A9796171E979A171297AE171E8
:100D0000297B2172697B61720726A0196A7B05F134
:100D10000E01C01C17F0B6FF687B761C3044EEE075
:100D2000267084F80290A888A4F80300F4E02670E6
:100D3000202025E126702120A0702879E0706879B4
:100D40002071B5F80500000A6071E879A071287A71
:100D5000E071687A2072A87A6072E87AA07209203D
:100D6000CFE02670262000F08DF918B12620A07063
:100D70001726A5E71820A0701326A1E726702720C4
:100D8000A070A888A4F80300A879D6E026702820CF
:100D9000A0706968002604F10308C4F80310304607
:100DA00015E000BF08EB0600A919071D51F8080F50
:100DB00038608888B8807A79B81D891D17F062FF7D
:100DC0007879B61D304486B209F10100C0B298F8B6
:100DD000031081464945E5D8761DB0B28FE02670F4
:100DE0001920A0702879E07068792071B5F80500A5
:100DF000000A6071E888000AA071D5F80600000CAE
:100E0000E071D5F80600000E2072B5F80900000A5E
:100E10006072D5F80900000CA072D5F80900000E28
:100E2000E072A889000A2073E868000C6073E86823
:100E3000000EA073B5F80F00000AE073D5F80F009C
:100E4000000C2074D5F80F00000E6074E87CA074CC
:100E5000287DE074687D2075A87D6075E87DA075AB
:100E6000287EE075687E2076A87E6076688B000A12
:100E7000A076287FE076A88B000A2077A87F60778D
:100E8000E88B000AA0771D203BE0267084F802B0B2
:100E90002879E070A888000A2071A8796071E88834
:100EA000000AA071287AE071687A207290E01846F2
:100EB0003E23237022231370291D132217F0E2FE14
:100EC00014201EE03E2020701D2010701E462D1D97
:100ED0000E222946304617F0D5FE0021084609E0CB
:100EE00005EB400206EB4003891CD289401CDA81E5
:100EF00089B2C0B26A7B8242F2D80F3188B2002830
:100F000002D06070801C80B2BDE8F88F3E20207057
:100F10001E201070A88818800320F2E73E20207061
:100F20001F2010706868186034E02770A120A0703E
:100F30002879E07068792071002060710420E0E772
:100F40002770A220A0702879E070A888000A20717C
:100F5000A8796071E888000AA071287AE071288970
:100F6000000A2072A87A60726889000AA072287B41
:100F7000E072A889000A20730B20C2E72770A32023
:100F8000A0702879E070A888000A2071A8796071A3
:100F9000E879A0710520B4E726701320A0702879A5
:100FA000E07068792071D5F80600C4F805006889FA
:100FB000A4F809000A20A4E72770A420A0702879CB
:100FC000E070A888000A2071A8796071E879A071A2
:100FD000072096E727708020A070A988A4F8031046
:100FE000E988A4F80510297AE17169892181A98924
:100FF0006181E989A181297C01F00101A1730D20A2
:101000007FE7000070B50A7882703AB3012A25D8CC
:101010001323037000230AE001EB430400EB4305B4
:10102000A678EE706488240A5B1C2C71DBB29342B4
:10103000F2D300230BE000BF01EB430500EB4304B8
:101040002E796671AD882D0A5B1CA571DBB29342C7
:10105000F2D3012101EB8200C0B270BD002070BD4F
:10106000402803D2401EC1B2054805E0FF2805D044
:101070004038C1B20248083013F0FABB0120704773
:101080005C000020401EC1B2014813F0F1BB00001B
:101090006C000020024902680A614068486170479C
:1010A0005C000020054902680A60406842F48C2216
:1010B0000A60034A10434860704700005C0000204B
:1010C000F807400207484FF0FF3100220160C90CC9
:1010D000416000F108011F200A604A600831C1E93F
:1010E000000270475C00002010B5FFF7EBFF002006
:1010F000FFF71AFC16F0FFFD04460348006800B134
:101100008047204610BD000074000020014908609F
:1011100070470000740000202DE9F04104464FF0B4
:101120008050D0F8A0701F4D1E4E103D102200219F
:10113000204617F021FE1022002104F1100017F0C4
:101140001BFE2868401C08D16868401C05D1A868AF
:10115000401C02D1E868401C07D028686A68A9686A
:10116000EB6820616261A161E361002000F01AFF79
:101170008743F80713D13068401C08D17068401CC1
:1011800005D1B068401C02D1F068401C07D032681D
:101190007068B168F36822606060A160E36000205D
:1011A000BDE8F0819000001038B54FF08051044642
:1011B0002248D1F8A010214D0268143D521C04D1E0
:1011C0004268D2431204120C35D0C90733D00168EB
:1011D0004068ADF80000C4F80110BDF80000A4F8A4
:1011E0000500A07940F0C000A0712868401C0CD018
:1011F0006868401C09D0A868401C06D0E868401CFC
:1012000003D0002000F0CEFE40B110220021E01DEE
:1012100017F0B2FD01202070002038BD2A686968EF
:10122000A868EB68C4F80720C4F80B10C4F80F00D6
:10123000C4F81330EEE70020EDE70000A400001032
:1012400002210180418000210171E021417142F6BB
:101250007E61C1800149816000207047C15E0585C3
:101260002DE9F0418F79DDF818E0082F01D9DB2155
:101270002CE0DFF8A4C05CF820400CB1DC2125E0B4
:10128000CC79002C45D064001D680A346619022F01
:1012900001D93D4601E04FF002052E44A6F10106BA
:1012A00001D93D4601E04FF00205A5F1010526EA0E
:1012B00005068D883D44A5F10105A7F1010725EA42
:1012C00007054FF6FF77BD4203D3E7211720FFF74D
:1012D000C3F9BEF1000F18D1341B4CF82040258013
:1012E000C879A0700120E070227108684FF6F07292
:1012F000000CE08008882081002003E004EB400718
:10130000401C7A81CF798742F8D8C87900FB056004
:101310001860BDE8F0810000941A0020034951F8DC
:101320002000002800D0807870470000941A002028
:1013300070B50546194850F8214064B3B5F5706F93
:1013400004D340F225211720FFF786F929462046CD
:1013500013F0A5FD0146FF2804D02046BDE87040EB
:1013600013F0C4BDA078B5FBF0F100FB1150C6B27C
:1013700032464FF6F071204613F0A5FD0246FF28D5
:1013800009D0B24201D00020E07029462046BDE8D5
:10139000704013F07EBD002070BD0000941A002044
:1013A0000246094810B550F821401146204613F076
:1013B00076FD0146FF2804D02046BDE8104013F01A
:1013C00095BD002010BD0000941A00202DE9F041C9
:1013D0000C4606468978607886B00144FF2902D918
:1013E0004FF482710CE02178814202D94FF484716C
:1013F00006E004963EB10025700706D040F21911B0
:101400001720FFF729F90125F6E74FF000082C22F5
:101410004146664817F0B0FC654F6378D7E9000293
:10142000B96863F31F6203910095CDE9010204AB33
:10143000424601A90020FFF713FFD7E90302A37872
:1014400094F80180796963F31F6203910095CDE9F7
:10145000010204AB424601A90120FFF701FFA17878
:10146000E37801EB080000F0FF08D7E90602396ACB
:1014700063F31F6203910095CDE9010204AB0022E2
:1014800001A90220FFF7ECFED7E909022379F96AE6
:1014900063F31F6203910095CDE9010204AB0022C2
:1014A00001A90320FFF7DCFED7E90C026379B96BD1
:1014B00063F31F6203910095CDE9010204AB0022A2
:1014C00001A90420FFF7CCFED7E90F10A3797A6CAD
:1014D00063F31F600392CDE90110A07918B10CF0FD
:1014E00027FEADF8080004AB002201A905200095F5
:1014F000FFF7B6FED7E91210E3793A6D63F31F6088
:10150000CDE90202CDE9005104AB002201A9062079
:10151000FFF7A6FED7E91510237AFA6D63F31F6073
:10152000CDE90202CDE9005104AB002201A9072058
:10153000FFF796FED7E91810637ABA6E63F31F605F
:10154000CDE90202CDE9005104AB424601A90820D1
:10155000FFF786FE617AA37A01EB080000F0FF082E
:10156000D7E91C01FA6E63F31F6003910095CDE982
:10157000012004AB002201A90920FFF771FE783792
:10158000E37A97E8070063F31F610DF1040C0095FF
:101590008CE8070004AB424601A90A20FFF760FE71
:1015A000049806B0801BBDE8F0810000941A00206A
:1015B000A016000010B5044680790E4951F82000AD
:1015C000A8B14FF6F073E179827891420FD24A1CAC
:1015D000E27100EB410252899A42F4D000EB4102E1
:1015E0005289A28013F082FC2060002010BD0520EB
:1015F00010BD0000941A00202DE9F04107464FF677
:10160000FF703880124850F82140ECB1A57820795D
:10161000B0FBF5F105FB110632464FF6F07120469E
:1016200013F051FC0246FF280ED0A81B1044B0FB5B
:10163000F5F105FB11002179084481B2398020467B
:10164000BDE8F04113F025BC0020BDE8F0810000AA
:10165000941A00202DE9F0410746104850F8215017
:101660003946284613F01BFC0446FF2812D0D5F853
:10167000060021464FEA3046284613F037FC014663
:101680003846B04705EB44014FF6F0704881002022
:10169000BDE8F08143F20200FAE70000941A00204E
:1016A000DF6D010088030800000000003F6A0100B0
:1016B00018040800000000007561010060010800C6
:1016C00000000000438401009000080000000000BA
:1016D00051E10000A8000800000000005B85010047
:1016E00000000800000000006D8501008000080077
:1016F00000000000E76F010070000800000000001B
:101700006F6E010060010800000000000971010017
:10171000E8000800000000004D710100980008007A
:10172000000000002DE9FF4F244C064681B02068E0
:101730009A46934658B1017AB14203D9406850F8AD
:10174000260040B143F2020005B0BDE8F08FA521AC
:101750001820FEF781FF1946029813F001FC80461D
:1017600058460E9913F0F2FB054608EB0500001DE4
:1017700087B22068A1463946006813F025FB0400B3
:101780001AD0678025802946201D0E9D07465A469F
:101790000923009513F08EFA2088414638440A2325
:1017A000029ACDF800A013F085FAD9F8000040683D
:1017B00040F826400020C7E70420C5E77800002055
:1017C00070B5144C23688BB1197A814212D95A68CA
:1017D00052F8201071B1002542F820504A8818684C
:1017E00013F04AFB216800200A7A0CE0C621182079
:1017F000FEF732FF43F2020070BD4B6853F8203011
:1018000033B9401CC0B28242F7D8086813F029FBF4
:10181000002070BD780000202DE9F0410D46040045
:1018200090464FF0000606D00027A00705D086217D
:101830001820FEF711FF0127F7E7CDB11146002070
:1018400013F0F3FA0C3000EB85068FB90A4F04F160
:101850000C00AA003C602572606000EB85002060EF
:101860000021606817F088FA4146386813F0DDFA05
:101870003046BDE8F081000078000020094910B52D
:1018800002460968002049B10B7A934205D949689C
:1018900051F82210002900D0081D10BDEC2118209D
:1018A000FEF7DAFE780000200A4910B50246096802
:1018B000002059B10B7A934207D9496851F8221098
:1018C000002902D031F8040B084410BDFA21182079
:1018D000FEF7C2FE78000020FEB506464418C81880
:1018E00000210DE05EB1009101910291E518009593
:1018F0002560019F67609DF8087027722C46184488
:10190000521E1204120CEDD1002E11D00091019143
:10191000029108490A6800924A680192097A8DF892
:10192000081000992160019961609DF808102172EA
:10193000FEBD0000E28E01002DE9F0411C4E45681D
:1019400004460022A1B10120607070888308002045
:1019500004EB400104EB80060A830B8400FB035177
:1019600071602118401C0A750428F1D3BDE8F0818C
:101970006270002004EB40010A830A8404EB8001BA
:101980004A602118401C0A750428F3D3708813F0AC
:10199000ACFB0746708813F0AFFB65602084291804
:1019A000A1606784E560A0842161E784DEE7000030
:1019B0007C0000202DE9F04768B100261144DFF8D3
:1019C0009C80CFB2002488F80070810705D04E219A
:1019D0000920FEF741FE0126F0E71F2B04D84FF641
:1019E000FF7101EA830509E05900FF2B0CD903F1CF
:1019F000FF02B2EB430F00D211468DB24FF6FC71DD
:101A0000ED1C0D4036B109E07C22B2EB430FF4D35C
:101A10007C21F2E7C8F80400A8F8025007EB870120
:101A200004EBC10200214FF001090FE05EB9D8F8C4
:101A3000044001EB810300EB020C04F8339004EB4B
:101A4000C303C3F804C0491C2A44C9B2B942EDD348
:101A5000D21D22F00700BDE8F08700007C000020C6
:101A600070B511480024214602780CE0456801EB6E
:101A7000810315F8333023B101EB810105EBC1047B
:101A800003E0491CC9B29142F0D344B10025A570CE
:101A900001212046FFF750FF2570204670BDA92187
:101AA0000920FEF7D9FD00007C000020044810B595
:101AB0004088840813F020FB844200D3204610BDE8
:101AC0007C0000200148407870470000840000201E
:101AD0000148406870470000840000202DE9F84369
:101AE0000C46074616462E2110460D46224613F098
:101AF0002AF9804657B13846414632462B46009473
:101B000013F0D8F803484760047046704046BDE8BB
:101B1000F883000084000020024842780178406881
:101B2000FFF7DCBF840000202DE9F8430F46044690
:101B30001646F720052113F006F94FF6FC71C01C7C
:101B400000EA0105DCB1A00703D095211920FEF7BA
:101B500083FD0D4880460460858000240DE0B8F8C0
:101B60000400D8F80010F72204FB001029460523D2
:101B7000009613F09FF8641CA4B2BC42EFD307FB9D
:101B800005F0BDE8F88300008C0000207FB5054615
:101B900002980E461C46410701D0800703D01F2142
:101BA0004C20FEF759FD4FF488722946002013F0AF
:101BB0000CFA06FB00F10CB1002000E002A813F0C3
:101BC00034F9002C03D103490D70029A4A6004B025
:101BD00070BD00009400002070B5074C05464FF41E
:101BE00088722178002013F0F0F9024629466068D7
:101BF000BDE8704013F040B99400002030B50D49A5
:101C000001204860821EC1F808230B498860002328
:101C1000C1F80032C1F80823084C2360251D286054
:101C20008860C1F8082323602860064904480860DA
:101C300030BD000000E0004000F0004000F5004032
:101C40000000F63F08F5014010B5FFF7D7FF13F08D
:101C50002CFB03490148086010BD00000000F63F5E
:101C600008F5014010B5FFF7C9FF13F01EFB00F0A7
:101C700087F805490348086000F0B8F8BDE810404F
:101C800000F0DCB80000F63F08F501402DE9F84F00
:101C90008246384816F005FFDFF8D8B028B1012693
:101CA0000BF10100FF21017000E000264FF4807568
:101CB000314C4FF000082F1D01216160C4F80081F4
:101CC000C4F80481C4F804A52160DFF8B0901CE0DA
:101CD000D9F80000C00618D50E2013F0F5FAEFF37E
:101CE0001080009072B603212046C4F804132946E0
:101CF00013F0F7FA30B93946204613F0F2FA08B972
:101D000016F066FF009800B962B62946204613F027
:101D1000E8FA28B93946204613F0E3FA0028D7D06C
:101D20003946204613F0DDFA0028C5D106BB9BF8E2
:101D300001108DF80010009900919DF8001009B174
:101D4000012500E000250BF1010080F80080032050
:101D5000C4F80803C4F80481C4F800810E2013F00D
:101D6000B3FA044816F0B4FE15B11120BDE8F88F9F
:101D70000020FBE70E04002000E0004010ED00E032
:101D800010B5064816F0A0FE18B130211D20FEF750
:101D900063FC02480021417010BD00000E040020C9
:101DA00070B511490A68EAB100231D4601244A684A
:101DB000521C4A60092A00D34D600E7904FA06F2DB
:101DC0000E6816420BD0EFF3108372B60C68944382
:101DD0000C6003B962B649680160002070BD5B1CED
:101DE000092BE4D3052070BD9C000020024800218F
:101DF00001604160704700009C00002010B5044C59
:101E00002078FF2803D012F021F9FF20207010BDA8
:101E10000000002010B5084C617809B10F2010BDFA
:101E200012F0DAF82070FF2801D0002010BD7321D5
:101E30001F20FEF711FC00000000002001490020D7
:101E4000487070470000002005498A8E824218BF02
:101E50007047002081F832004FF6FF708886704787
:101E6000D81B00200648074A818E5288914205D12E
:101E700090F8320000281CBF0020704701207047F6
:101E8000D81B002000040020014948807047000052
:101E9000000400200848094A818E5288914209D1E5
:101EA0004FF6FF71818610F8321F19B100210170C1
:101EB0000120704700207047D81B0020000400203C
:101EC000074901F1320091F83220012A04BF0020B5
:101ED00070470122027003480088888610467047C8
:101EE000D81B0020000400200749084B8A8E5B881D
:101EF0009A4206D191F83220002A1EBF01600120CB
:101F00007047002070470000D81B0020000400200C
:101F100009498A8EA2F57F43FF3B03D0002101606F
:101F20000846704791F832200349012A1ABF016020
:101F30000120002070470000D81B002001490880C4
:101F400070470000000400200A4A10B1012807D0A1
:101F50000EE0507860B1D2F802000860D08804E04A
:101F6000107828B1906808609089888001207047B7
:101F70000020704710040020094A012340B10128C5
:101F800018BF704713700868906088889081704708
:101F900053700868C2F802008888D080704700003B
:101FA00010040020064910B1012803D006E048784B
:101FB00010B903E0087808B101207047002070478D
:101FC00010040020014908777047000032120020F9
:101FD0000148807870470000A40000200148C078C4
:101FE00070470000A400002001490120487170479B
:101FF000A40000202DE9F84FFE4DDDF828C02C7814
:10200000002C6CD1002A1CBF002BBCF1000F66D045
:10201000C5F81CC0C5E90F014FF00009C5E905234B
:1020200085F8059085F8049085F8029085F8019070
:1020300085F80390DFF8C083A5F80C90A5F80E9002
:10204000D8F8040000F1A80604460CF093FF0CF049
:102050005FFA94F972000DF029F8206A0DF092FAF7
:10206000A0690DF085FA96F833000DF0C5FA98F8DE
:102070000000002838D0042012F0CEF8616941F643
:102080004C50814228BF962003D201200DF058FA0F
:102090004D200CF081FED8F8040090F808030028C9
:1020A00018BF0CF069FE94F86F1001200CF0A8FC2A
:1020B000002808BFBDE8F88FD0480CF0EBFD208861
:1020C000FFF7F2FB68632088FFF7D8FBA86394F85A
:1020D0007B008DF800009DF8000080BB1DE040F201
:1020E00045112720FEF7B8FA032012F095F8616930
:1020F00041F64C50814228BF962003D201200DF0BA
:102100001FFA4D200CF048FE94F86E1000200CF0E1
:1021100077FC0028D0D1BDE8F88F606F78B1B6F8B1
:102120004A00B18A88420AD1B4F8781001220844E2
:10213000A6F84A0094F87A00616F10F00FFD06F1DE
:102140008800DFF8BCA20FC88AE80F00D6F8980014
:10215000CAF81900D6F89C00CAF81D00D8F8040087
:10216000012700F1A80290F8C51026291EBF2729D3
:1021700092F81EC0BCF1260F0BD04FF008024FF0B2
:102180000203212918BF22292ED0BCF1240F52D0DE
:1021900081E098F80010002990F86E1013D090F8A4
:1021A000E60300287BD0082918BF042970D008282E
:1021B00018BF04286CD0012918BF012857D000BFD0
:1021C0004FF002016BE090F84203002867D0082925
:1021D00018BF04295CD0082818BF042858D001294A
:1021E00018BF012843D0EBE7BCF1240F23D098F8A7
:1021F0000010E9B390F86E1090F86E0110F0040F23
:1022000018BF10460CD0082918BF042940D0082850
:1022100018BF04283CD0012918BF012827D0CFE7D8
:1022200010F0010F18BF3846EDD110F0020F18BFA3
:102230001846E8D133E098F80010C9B190F86E1054
:1022400090F86EC190F867000CEA000010F0040FDF
:1022500018BF104610D0082918BF042918D0082824
:1022600018BF042814D0012918BF0128A8D100E004
:1022700011E04FF0010112E010F0010F18BF3846D5
:10228000E9D110F0020F18BF1846E4D107E0FFE7CC
:102290004FF0080103E090F86E100429F8D0A08FE9
:1022A00011F00C0F18BF4FF4296013F0C7F9218FFC
:1022B000814238BF08464F49887194F86F1011F079
:1022C0000C0F14BF4FF42960B4F8420096F823B005
:1022D000B4F84050082937D013F0B0F9BBF1000F23
:1022E00004BF001D80B2854238BF2846C5B2DFF862
:1022F00004B18BF8075001F043FC10B12B2D98BFAF
:102300002B252A468BF8085098F8000000B396F861
:102310002300E8B38AF81870D6E92001CAE904015D
:1023200094F86F100120012908BF002343D002292F
:1023300008BF01233FD0042908BF03233BD008294D
:1023400008BF022337D027E0042113F077F9C5E74F
:1023500096F8220058B38AF81870D6E91E01CAE927
:102360000401616941F64C5081422CBF00200420D9
:1023700094F86E10012908BF002312D0022908BF6B
:1023800001230ED0042908BF03230AD0082900E046
:1023900016E008BF022304D040F221410620FEF7D8
:1023A0005BF9FB221649CDF800900BF0B5FF012038
:1023B00000F020FC07E01249CDF800900BF0ACFFD4
:1023C000012000F0B9FB0F480068032818BF0B2854
:1023D0001ED0CAF85A90CAF85E90CAF86290AAF85D
:1023E00066900948B18A41802188018096F83310AF
:1023F00001710BE0A4000020E0000020FC2D000093
:10240000D81100205015004032120020BDE8F88F8E
:1024100040F202214FF02700FEF71EF92DE9F041AE
:10242000204D06460F461E48696A82B0406891F802
:10243000018000F1A80416F0020F15D0A86A48B375
:102440006A89D21C16F01EFCA86A686201AA694655
:10245000A86B12F0CAFB009812F085FB38600122CD
:102460004146A86B12F036FB16F0010F04BF02B014
:10247000BDE8F081D4E92002411C42F10000C4E92A
:102480002010207E01280CBF00200120207602B001
:10249000BDE8F08140F25C412720FEF7DDF8000046
:1024A000E0000020A40000200248C089C0F3802082
:1024B00070470000A400002038B51A48017800F1E8
:1024C0003C0449B12178007849B102280ED040F28D
:1024D0001E212720FEF7C0F800F08EFA0BE001283D
:1024E00009D040F21A212720FEF7B6F86068D0F82C
:1024F00020030CF0E5FB606890F87B108DF800106D
:102500009DF80010002918BF38BD416F002908BF91
:1025100038BD90F87A00BDE838400022114610F02E
:102520001DBB0000A400002000204870312008706E
:102530000548826E4A60C26E8A60026FCA60B0F857
:102540007400088270470000D8110020012984BF60
:102550000120704770B51B4C0546A16988470028CB
:102560002CD0207950BB04F13C000178002908BF31
:10257000012D01D021B31DBB1348027812F0100FBA
:1025800006D1E06A007810F0100F08BF012001D0DA
:102590004FF00000A36A23B9638913B112F0100F42
:1025A0000CD000291CBF217B11F0020F03D0216A3F
:1025B000C978022904D0A189084301D0012070BD47
:1025C000002070BDA4000020B40000202DE9F34FCE
:1025D000DFF8008383468BB0D8F804004FF0000A80
:1025E000A8F13C0400F1A8078DF814A0CDF818A0BC
:1025F00020785646D146022804D040F2DF412720F9
:10260000FEF72AF8A07B10F0400F07D14020626946
:1026100000219047E08940F04000E08197F82300D6
:10262000BBF1000F00F0D380A0B10BF0AFFF0BF0B7
:1026300089FF78B9606A417861B10078397EC0F36A
:10264000C000884206D10120607000F0D5F90DB0BD
:10265000BDE8F08F606A41786181002908BFA662F9
:1026600003D0A06B12F07DFBA062E08940F4807083
:10267000E081606AF97D0078C0F38000884208BF7D
:102680004FF0010A47D0D8F8040006A900F1A805C8
:1026900090F8BE0000283AD002280BD1606B12F0EF
:1026A000F1F900284BD0D5E91E01401C41F1000191
:1026B000C5E91E01AE7598F8000000281CBFA87C73
:1026C000002809D0AE74A289314642F01002A281DE
:1026D00062694FF010009047687C90B16E74FFF70C
:1026E000D9FB90B3A289082042F00802A281626956
:1026F00000219047D5E91E02411C42F10000C5E9C6
:102700001E10E87D01280EBFEE750120E875E089F6
:1027100040F48060E081606A397E0078C0F3C000D8
:10272000884222D101F02CFAB8B1616AE0790A78C6
:1027300002F00302012A18BF022A0BD00DE040F27A
:10274000DA314FF02700FDF787FF40F2F131272003
:10275000FDF782FF4978814203D805A800F090F97F
:1027600003E0207940F01000207197F82200002843
:102770003FD098F80010D8F8040000290CBF0122BF
:10278000002255490A76D7E91E23C1E9042341698D
:1027900041F64C52914234BF4FF0040C4FF0000C04
:1027A00090F86E00012808BF00231CD0022808BF43
:1027B000012318D0042808BF032314D0082808BF19
:1027C000022310D040F221410620FDF745FF0028EA
:1027D00018BF0BF0D5FEA078401CA070E08940F433
:1027E0000070E081C1E7FB223B49604600960BF098
:1027F00093FD0C98002520B9A1780120FFF7A6FED3
:1028000018B10CF0A3FE012502E0002000F0F2F95F
:102810009DF81400C0B1616A48780090A06AD0B1F8
:102820006289D21C16F02EFAA06A606209AA08A971
:10283000A06B12F0DAF9089812F095F9814601229E
:10284000A06B009912F046F9B98A2448BAF1000F3A
:1028500013D029B10DE040F25C412720FDF7FCFECA
:1028600098F8001029B1C188002904BF0189002906
:1028700003D0418901F101014181BBF1000F14BF77
:10288000C188018901F101011ABFC180A6700181CF
:10289000104801F01BFB069840B112F064F9D8F81B
:1028A0000410401C0672082201F07EF8B9F1000FF6
:1028B00008D0D8F8041009F1080006701022484624
:1028C00001F072F8002D18BF00F096F80DB0BDE8C9
:1028D000F08F0000E0000020D8110020321200200C
:1028E0002DE9F84F424E8346A6F13C0570688A46B2
:1028F00000F1A8042878012804D040F26B41272079
:10290000FDF7AAFE207C00274FF0010968B127746B
:10291000AA89394642F00402AA816A6904209047D4
:102920003078002818BF84F81290296A4FF0030805
:10293000087838EA00000DD1A07DA0B9AA8902204C
:1029400042F00202AA816A699047286A007838EA50
:10295000000008D0286A407800280EBF84F816903E
:102960000220A07501E084F8168094F82300002866
:102970002CD031782A7A706800290CBF01210021FF
:1029800081F001031B490B76D4E9203CC1E9043CEA
:1029900090F86F004FF0010C012808BF002310D001
:1029A000022808BF01230CD0042808BF032308D045
:1029B000082808BF022304D040F221410620FDF779
:1029C0004BFE0C49604600970BF0A6FC3AEA0B0060
:1029D00004D000210846FFF7B9FD18B1BDE8F84F53
:1029E00000F00AB8BDE8F84F002000F0A5B80000DC
:1029F000E0000020D811002010B50BF08DFE0BF088
:102A000087FD114C00216269E08990470F48017FE2
:102A100099B1A0F15A01D1F85A208A66D1F85E2006
:102A2000CA66D1F862200A67B1F86620A1F874205E
:102A3000022207491D3001F00BF8E2692179607824
:102A400090470020207010BDA4000020321200200A
:102A500029250000084810B50078022804D040F26B
:102A600049212720FDF7F8FD044901200873BDE83E
:102A70001040FFF7C1BF0000A40000203212002068
:102A800070B52649264C0126496801F1A805616AFE
:102A90000A7802F00302012A18BF022A0ED0032A84
:102AA00023D12E74E289304642F40062E281A28989
:102AB00042F00102A2816269904716E04978A1B113
:102AC000E28942F40062E281A26A002A08BF70BD76
:102AD000FB291DD86179002908BF067005D06269FD
:102AE000BDE87040202000211047287E012806BF45
:102AF000002028762E76606A4078002808BF70BDD6
:102B0000D5E92010491C40F10000C5E9201070BD36
:102B1000207940F01000207170BD0000E00000201E
:102B2000A400002003480078002808BF7047FFF782
:102B300063BF0000A40000202DE9F041DFF8AC8065
:102B40000746A8F13C04D8F80450E06A606295F8A2
:102B5000CB10207A05F1A80600291CBF001DC0B2C9
:102B60002249002F496891F86F1002BFFF2895F89D
:102B70006E20914201D00CF00BFD96F82300A8B115
:102B8000206B0CF09FFA98F8000000280CBF012081
:102B9000002080F0010116480176D6E92012C0E934
:102BA0000412216B606A0BF053FC04E0606A0CF0C5
:102BB00089FA0BF0ADFC3FB995F86F0010F00C00EE
:102BC00018BF28200CF0B2F8686941F64C518842D1
:102BD00095F86E204FF0000134BF012000200CF06A
:102BE0004BFC02202070BDE8F0810000E0000020D6
:102BF000D81100202DE9F04FDFF8F4A183B0AAF13D
:102C00001C09DAF804504FF000088DF80080A9F193
:102C1000200495F8CB10227A05F1A80600291CBFE4
:102C2000111DCAB272490028496891F86E1002BF9E
:102C3000FF2A95F86F00884203D04FF0FF000CF098
:102C4000A7FCB07DDFF8ACB1012750B1012830D02E
:102C5000022841D003284FD040F2FB212720FDF766
:102C6000FBFCA079ADF80400A5F854004846FFF736
:102C70003BF9A0B1A289216A42F08002A281626977
:102C8000802090477774D9F80000C0781B283CD189
:102C90004FF0010105F110000CF074FF35E06A46B9
:102CA00001A9606B11F0DCFF206210B196F85D1095
:102CB00011B1C4F820B028E09DF8001031B9A0F897
:102CC000008080F80280012113F0C4F8BDF80410E0
:102CD000206A13F07BF818E0B5F85400ADF8040052
:102CE0006A4601A9606B11F0BBFF206268B940F22F
:102CF000E5212720FDF7B0FC4846FFF7F5F868B35B
:102D0000D9F80000C0781B28C2D0206A4FF0080311
:102D10004FF00309017801F0F7010170F27D03EA39
:102D2000C20241EA020101F0FB010170327E4FF064
:102D3000040303EA820241EA020101F0EF0101709B
:102D400039EA010104BFC078022815D0606B11F088
:102D500061FF002818BFB84605D00DE040F2EE2113
:102D60002720FDF779FC206A007839EA000003D0BB
:102D7000FFF778F880F00108206A017841EA08112D
:102D8000017096F8221000291CBF4178002913D049
:102D9000206B0CF097F99AF8000000280CBF012175
:102DA000002115480176D6E91E12C0E90412216AF5
:102DB000206B0BF04DFB03E00CF084F90BF0A8FB4B
:102DC000686941F64C51884295F86F204FF0010137
:102DD00034BF012000200CF04FFBE770206A01880F
:102DE00021828078A074277003B0BDE8F08F0000C6
:102DF000E000002000120020D8110020552A000019
:102E0000CD250000E1280000252B000002460748E0
:102E100010B5007838B10648417821B1801C0BF01C
:102E2000B7F9012010BD002010BD000004040020EF
:102E30000E1C002000487047981D002004494A7865
:102E4000824286BF084490F842010020704700008B
:102E50000E1C002004494A78824286BF01EB001014
:102E600082300020704700000E1C0020054A01EB54
:102E7000410102EB41010268C1F80A218088A1F8F2
:102E80000E0170470E1C00202DE9F041134C064640
:102E900000256078002898BFBDE8F081C0B2A84244
:102EA00014D904EB0510823010D0611991F8421149
:102EB00061B905EB450104EB410707F58571324621
:102EC00012F05EFAB7F80E01A7F80E01681CC5B241
:102ED0006078A842E2D8BDE8F08100000E1C002016
:102EE00004494A78824286BF01EB0010801C002012
:102EF000704700000E1C002008494A78824203D91E
:102F00000A1892F842210AB10020704700EB4000F5
:102F100001EB400000F58570704700000E1C00209A
:102F200010B54FF4C5720021054815F025FF05487E
:102F30000021017041704FF46171418010BD0000AB
:102F40000E1C00200404002070B50C4605460BF052
:102F5000A7FB0BF035F90A482A46007868B1094BFF
:102F6000597851B1002C0CBF03F18200981C0BF072
:102F70000FF90BF04FF9012070BD002070BD00006B
:102F8000040400200E1C00200B4B93F801C0844564
:102F90009CBF00207047184490F80201C0EBC000AD
:102FA000184490F852310B70D0F853111160B0F8FA
:102FB00057019080012070470E1C002010B500F0D2
:102FC00083F8082808BF10BD01460B4A002092F87C
:102FD00001C0BCF1000F0CD9131893F802318B42D9
:102FE00003D1082818BF10BD03E0401CC0B28445BF
:102FF000F2D8082010BD00000E1C00200246064832
:1030000010B500EB0110012182300BF0C1F8BDE8D2
:1030100010400BF0FFB800000E1C00200148408853
:10302000704700000404002070B5012516462C46A8
:1030300000F04AF8082821D0144900234A78002AD1
:103040001CD900BF01EB030C9CF802C1844518D1C8
:10305000082B13D0002E18BF3370487898420DD932
:1030600001EB031010F1020F08D0C81890F84A4184
:1030700090F83A0101280CBF0125002545EA04001B
:1030800070BD5B1CDBB29A42DCD8F7E70E1C002057
:1030900006494A78824206D9084490F83A01002845
:1030A00004BF012070470020704700000E1C002064
:1030B000014840787047000004040020014948702E
:1030C00070470000040400202DE9F00F204B024659
:1030D000002093F80080B8F1000F35D90F784E78B2
:1030E0008D78CC7891F804C091F805A0C0EBC001B0
:1030F000194491F8529191F853B182EA090987EA8B
:103100000B0BD94491F854B186EA0B0BD94491F8D2
:1031100055B185EA0B0BD94491F856B184EA0B0BF3
:10312000D94491F857B191F858118CEA0B0BD94456
:103130008AEA010111EB090F04BFBDE8F00F7047E7
:10314000401CC0B28045D1D8BDE8F00F08207047C0
:103150000E1C002070B58CB000F110041D46164600
:103160000DF1FF3C5FF0080014F8012C8CF80120F1
:1031700014F8022D0CF8022F401EF5D101F1100CAD
:103180006C460DF10F0108201CF8012C4A701CF848
:10319000022D01F8022F401EF6D1204612F0AEF8A3
:1031A0007EB16A1E04F130005FF0080110F8013CA6
:1031B000537010F8023D02F8023F491EF6D10CB0E0
:1031C00070BD08982860099868600A98A8600B98F4
:1031D000E8600CB070BD000070B501260446002503
:1031E00071B1584A012932D002297BD0032918BF76
:1031F00070BD04F1CE01BDE87040CD3012F0D8BAF8
:103200004FF48362002115F0B7FD84F8CD604E4A7B
:10321000C4F816210722C4F81A2194F81621FE21B9
:1032200022F0040284F8162184F84E117F2184F8DC
:10323000C110464904F1A800C4F8B0100021C0F83C
:10324000B050C0E90011202084F8940370BDA4F8A8
:10325000265384F81B5360693D49B2FBF0F20144E8
:10326000B1FBF0F1C4F8EC1040F6B831A4F8F0105E
:10327000E38BA4F8F650B4F8FAC0521C0CFB00FC27
:10328000BCFBF0FCA4F8FAC040F2712C03FB0CF379
:1032900000EB03135B1EB3FBF0F3A4F8F830A4F8C3
:1032A000FE202C4A04F1A80100EB0212521EB2FBD0
:1032B000F0F24A640A6C4243B2FBF0F00864263133
:1032C000481E12F075FA15F05FFC38B1A06900F0E5
:1032D0000BFD002804BF84F8086370BD84F8085310
:1032E00070BDFFE7D4F8EC13B4F8F2C3636904F1DE
:1032F000A800A4F8F650B4F8FA40B2FBF1F25C432F
:10330000B4FBF1F4A0F8524040F271240CFB04FC31
:1033100001EB0C1CACF1010CBCFBF1FCA0F850C0A3
:10332000521CA0F85620B0F84820624301EB02126C
:10333000521EB2FBF1F24264026C5A43B2FBF1F14D
:10334000016470BD005A62022F4904C400E0FCFF12
:103350007FC3C901389C1C0041F64C5291423DBFCD
:103360000549A1FB0010400940F2E24128BFB0FB33
:10337000F1F080B2704700001F85EB5141F64C52CE
:1033800091423DBF0549A1FB0010400940F2E241D6
:1033900028BFB0FBF1F0C0B2704700001F85EB51B1
:1033A00030B40022A1F1010CBCF1000F12DD431E6C
:1033B00011F0010F08BF13F8012F5C785FEA6C0C65
:1033C00008D000BF13F8025F22435C782A43BCF1A7
:1033D000010CF7D1491E5CBF405C0243002A0CBFC0
:1033E0000120002030BC7047074991F900100844C3
:1033F0001428C4BF1420704710F17F0FB4BF6FF0C2
:103400007E0040B2704700001E040020024A0021E6
:1034100011705170704700001E04002008B57F2015
:103420008DF8000068460CF099F8002804BF9DF95B
:10343000000008BD9DF9001007484078404240B2A6
:1034400008441428C4BF142008BD10F17F0FB4BF76
:103450006FF07E0040B208BD1E040020014890F9C4
:10346000010070471E040020014A1070517070471F
:103470001E040020014890F9000070471E0400203F
:1034800010B515F0A8F8074991F900100844142860
:10349000C4BF142010BD10F17F0FB4BF6FF07E00C9
:1034A00040B210BD1E040020074908B509788DF808
:1034B00000109DF8001000291CBF002008BD034922
:1034C00015F0D8F8012008BD2004002021040020B8
:1034D00010B5054CFF2121700146601C15F0CAF89B
:1034E0000020207010BD00002004002070B581EA8B
:1034F00011418BB2C47A83EA0201002201F0FF0C71
:10350000090A91FAA1F19CFAACFC090E4FEA1C6C75
:103510004CEA012101EB011C521C0CEB0301D2B25D
:1035200089B2032AEAD381EA0302DFF888C00021C6
:103530006346E2FB0C3109096FF0240301FB032110
:10354000C9B200EBD10301F0070C5D78012303FA47
:103550000CFC15EA0C0F1CBF084670BD04FB02F101
:10356000090C491CC9B24FF0000C00BF00EB0C0461
:10357000A2798A4227BF00226478891AC9B20AD385
:1035800003FA02F52C421CBF491EC9B271B1521C8C
:10359000D2B2082AF4D30CF1010202F0FF0CBCF104
:1035A000050FE3D39D214620FDF756F802EBCC0032
:1035B000C0B270BD53E4B36E70B5044690F83000ED
:1035C00008B1252801D9122070BD002A04BF0020AF
:1035D00070BD94F8250010B1012851D048E094F84E
:1035E000320094F831102B4B01FB020000251A46E3
:1035F0002946E0FB032109096FF0240201FB0200C8
:10360000C0B204EBD00284F8320000F0070192F857
:103610002620012303FA01F10A421EBF84F8330079
:10362000284670BD94F83010B0FBF1F201FB120097
:10363000401CC1B25FF0000004EB000C9CF82B2092
:103640008A4227BF00229CF826C0891AC9B20BD330
:1036500003FA02F61CEA060F1CBF491EC9B249B1A3
:10366000521CD2B2082AF3D3401CC0B20528E3D3BF
:103670001F2070BD02EBC00084F83300284670BDE7
:10368000A28A896904F12500FFF730FF84F833002E
:10369000002070BD53E4B36E417841B1C0782B284F
:1036A00003D2044A105C884201D1012070470020F7
:1036B00070470000EB8E010010B50122C1702B296C
:1036C0003CBF064A525C06D3FF2904D040F2744145
:1036D0002A20FCF7C1FF427010BD0000EB8E0100F4
:1036E0000449897D01F0040108430CBF012000203A
:1036F00070470000C01A00202DE9F84FDFF85CA2E7
:10370000974F83464FF00108002578682E46007ACF
:103710008DF80000009800909DF80010102908D145
:103720009AF8170028B1BAF81800002808BFBDE8B9
:10373000F88F28463C6914B3217A8DF8001000995F
:1037400000919DF80020D2B10028F2D1B4B3207AC4
:103750008DF800009DF8009004F10800052101702B
:10376000A9F102000F2880F0EC80DFE800F02B398F
:1037700045EA7E7093704F4F707070B5D9007C68C9
:10378000227A8DF80020009A00929DF80030012BDB
:1037900008BF0446D8D0EFF3108172B622687A6071
:1037A00001B962B6217A8DF80010009900919DF858
:1037B0000020002A0CBF40463C61C5E7FFE700201F
:1037C000BDE8F88F626832B1594620469047042020
:1037D00060F307068CE040F2C3111020FCF73CFFB9
:1037E000626822B1594620469047064680E04FF471
:1037F000E6711020FCF730FF616811B12046884760
:1038000076E04FF4EB711020FCF726FF5548036873
:10381000002B6DD060684A465946009098470420B6
:1038200060F307069BF800001E2805D01B285FD117
:103830009BF8040000285BD0009804210089FDF764
:1038400009FF18B340F2EB111020FCF705FF4648C2
:103850000368C3B360684A4659469847042060F33A
:103860000706B9F10D0F11D042E0626832B1594636
:103870002046904708F0F6FE28B107E040F21121FB
:103880001020FCF7E9FE05F0F3FEE0B104203D61F5
:10389000BDE8F88F6068B8B104882046FEF704F8E8
:1038A000B0B18BF801500F218BF80010ABF8064037
:1038B000ABF808808BF80480002111F026FA042070
:1038C0003D61BDE8F88F13E0E5211020FCF7C4FE50
:1038D000C5211020FCF7C0FE8BF801501F208BF88B
:1038E0000000D4F80900CBF80400042060F30706B8
:1038F000C6F30720012808BF84F8089027D0EFF30B
:10390000108072B6217A8DF800109DF800100529FC
:1039100013BF002925723D6165F30706B8B915E0AC
:103920001248026822B1606830B100885946904759
:1039300002203D61BDE8F88F4FF410711020FCF7B4
:103940008BFE40F24A211020FCF786FE62B616F08C
:10395000FF0F3FF4DAAEF0B2BDE8F88FC01A0020D6
:10396000F01A0020F0000020EC000020E800002009
:103970000A4910B508700A48002141618161C1619E
:1039800001624162122215F0F7F90648012100F1A7
:103990000C021170011D4160016010BD2604002061
:1039A000DC1A0020F01A002038B5037A8DF80030B8
:1039B0009DF8003023B140F2C2211020FCF74CFEEC
:1039C000F0B1416000F108010A70EFF3108372B6A4
:1039D000DFF844C0C0F800C0ACF104014A6852B13D
:1039E000127A8DF80020009A00929DF80040012C78
:1039F00008BFC1F800C00A681060086033B904E06D
:103A000040F275211020FCF727FE62B603480078CB
:103A1000BDE8384010F0FEBAF41A00202604002059
:103A2000094810B5002141618161C16101624162B3
:103A3000122215F0A1F90548012200F10C010A70CB
:103A4000011D4160016010BDDC1A0020F01A002049
:103A500038B5037A8DF800309DF80030002B1CBF7C
:103A6000027238BDF0B1416000F108010A70EFF355
:103A7000108372B6DFF844C0C0F800C0ACF1040196
:103A80004A6852B1127A8DF80020009A00929DF88F
:103A90000040012C08BFC1F800C00A68106008602F
:103AA00033B904E040F275211020FCF7D5FD62B671
:103AB00003480078BDE8384010F0ACBAF41A002092
:103AC0002604002030B45081B1F808C0A2F80CC020
:103AD0008B89D38148891082CC895482CD8DA542AF
:103AE00004BF4C8D844206D10C8E9C4202BF8B8D4C
:103AF0006345002301D04FF0010313754885508AB8
:103B0000C88590898885D089088630BC01491046CF
:103B100012F0B8B98D3B000030B490F86E508C882C
:103B2000B1F808C015F00C0F1BD000BFB4F5296F19
:103B300098BF4FF4296490F86F5015F00C0F17D010
:103B4000BCF5296F98BF4FF4296C4A88C988A0F842
:103B50004C20A0F85010A0F84E40A0F852C030BC45
:103B60007047002B1CBF157815F00C0FDED1E2E773
:103B7000002B1CBF527812F00C0FE1D1E5E70000DA
:103B800001480078704700002704002038B5A0F1F4
:103B90001805007D0C4600F00100FFF7A1FD002193
:103BA000002818BF00910ED1617016202070D5F842
:103BB0002200D5F82610D5F82A2060600348A160BD
:103BC000E26040680090BDF8000038BDE03C0000B5
:103BD00070B5B0F838C012F00C0F0CF1040C1FFADD
:103BE0008CFC4FF434751CBF05EB8C1C1FFA8CFC4D
:103BF0000FD1012A04BF4FEACC0C0CF1500C06D0B7
:103C0000022A04BF4FEA8C0C0CF12C0C60D11FFA75
:103C10008CFC12F00C0F18BF4FF4296406D1B0F8D9
:103C20004E60B0F84A40A64238BF3446644538BFBB
:103C3000A446B0F84040241DA4B213F00C0F1CBFE2
:103C400005EB8414A4B20AD1012B04BFE400503464
:103C500004D0022B04BFA4002C3439D1A4B213F039
:103C60000C0F14BF4FF42960B0F84200A04238BFD7
:103C700004461A48007898B113F00C0F18BF4FF49F
:103C8000696012D0844228BF2046044612F00C0F0F
:103C900018BF4FF4696012D0844528BF604684463F
:103CA0000CEB04000844801D70BD012B08BF4FF4CD
:103CB000E470E7D0022B08BFE820E3D008E0012A37
:103CC00008BF4FF4E470E7D0022A08BFE820E3D031
:103CD00040F223210620FCF7BFFC0000270400204F
:103CE000040000000400000070B46FF01F02010C1B
:103CF00002EA90251F23A1F5AA4054381CBFA1F564
:103D0000AA40B0F1550009D0A1F52850AA381EBF2D
:103D1000A1F52A40B0F1AA00012000D100204FF007
:103D2000000C62464FEA0C048CEA0106F643164387
:103D3000B6F1FF3F11D005F001064FEA5C0C4CEAEA
:103D4000C63C03F0010652086D085B08641C42EA99
:103D5000C632162CE8D370BC704770BC0020704788
:103D600010B50C4C08212046FCF708FD20680028FF
:103D700004BF60680028F5D0074C00BF4FF0080171
:103D80002046FCF7FBFC2068002804BF6068002880
:103D9000F4D010BDF4000020FC000020094A0A48BD
:103DA000D2E9001348434B4083EAB11181EA432131
:103DB00011604FEAF0604FEAF34100EB8000516080
:103DC00070470000F4000020BB79379E094A0A487A
:103DD000D2E9001348434B4083EAB11181EA432101
:103DE00011604FEAF0604FEAF34100EB8000516050
:103DF00070470000FC000020BB79379E70B5A0F131
:103E0000340530F8DC6C1B480C46016800291CBFE7
:103E1000284688471848016800291CBF3046884753
:103E2000002060700C2121702071A4F8056095F8C5
:103E30003D00E0713046FDF721FD10F01FFEA8B1F6
:103E40003046FEF701F800213046FDF703FC012162
:103E50003046FDF7FFFB002818BF70BD074800681B
:103E6000002808BF70BDBDE8704000477321632083
:103E7000FCF7F2FB040100200C01002008010020E7
:103E800010B5041D0AF0F6F8044A41F60703024093
:103E900001EA03002260606010BD00002F4904F7B2
:103EA00070B540680D1D00F1A8040AF0E3F841F672
:103EB0000702054B114094F86E201840024062F34F
:103EC00007002860696070BD2F4904F72DE9F84F9D
:103ED0004768064607F1A809FFF7A0FA054670688B
:103EE0007F2D00F1A80480F8C15008BFBDE8F88F0D
:103EF00094F83300D6F80480A0764548A16882681B
:103F0000C2F580536B43514303EB2131A1604179EA
:103F100000293DD0716890F9002001F1A80AD1F87C
:103F2000B01001F50061091349B2914207DA90F926
:103F30000200494249B2084400F307000AE090F940
:103F400001208A4224DA90F90300494249B2084428
:103F500000F30700E0B1DAE900016FF000425140E0
:103F600071EA000014D014F0F9FCDAE90023801A99
:103F700071EB03000CD3D6F804A00AF5DC7B0AF041
:103F800067FF8AF86F0023490BF1CC0011F07DFF29
:103F900094F91B000021281A48BF404298F82D20B0
:103FA000824210DCFF2A0ED0207F401CC0B2207756
:103FB00098F82E20904202D8E07E7F2803D100207E
:103FC000E5762077012197F82C00012818BFBDE87D
:103FD000F88F002908BFBDE8F88F706890F8C0110D
:103FE0008DF800109DF8001000F5DC70002918BF56
:103FF000BDE8F88F3988418199F81910017399F853
:104000001A104173BDE8F84F02220349FFF7CCBCF8
:10401000100100201D400000AF6001002DE9F041BB
:10402000A0F52175A0F5EE7482B095F86F0013F03D
:104030008EF88046A0682E4E00F50060001396F9B9
:10404000001040B2884207DA96F90210404240B2AE
:10405000084400F307070DE096F901108142A4BF60
:1040600002B0BDE8F08196F90310404240B2084426
:1040700000F30707002F04BF02B0BDE8F0816FF026
:104080000042D4E90001514071EA000004BF02B0CF
:10409000BDE8F08114F062FCD4E90023801A71EBD2
:1040A00003003CBF02B0BDE8F0812888694611F0EA
:1040B000F8F918B185217A20FCF7CEFA08F1010051
:1040C000C1B202233A46684613F082F800281CBFAA
:1040D00002B0BDE8F08130790649A0FB015614F02A
:1040E0003DFC40197141C4E9000102B0BDE8F08116
:1040F0001001002040420F002DE9F84391F801C063
:104100000A788C784FEA1C6342EA0C2242EA0442A5
:1041100043EA1443CC784FEA142C42EA04640A7947
:1041200043EA0C031A434979012842EA012108BFF6
:1041300041F480310D466A46204600F095F800288B
:104140001CBF0120BDE8F883DFF8608098F800000C
:1041500098F80110884204BF0020BDE8F8839DF85C
:104160000090484515D9D8F80410A0EB090C01EBD4
:10417000C00300220CF0FF0C861A01EBC606521C8D
:1041800056E9027663E80276ACF1010C1CF0FF0CF4
:10419000F2D1D8F80410401C01EBC901C1E9004577
:1041A00088F800000120BDE8F88300001C01002011
:1041B00010B510F0070F03D063214820FCF74CFA2C
:1041C00020B1034A5170506000201070C80010BD2B
:1041D0001C01002038B54B780A784FEA136C8C78B4
:1041E00042EA0323CA7843EA04434CEA144C43EA04
:1041F00002634CEA122291F804C0497942EA0C02A7
:1042000042EA0121012808BF41F4803118466A467C
:1042100000F02AF8002808BF38BD0C480178491E74
:10422000C9B201709DF800208A420DD24068891AF7
:1042300000EBC200C9B20830491E70E8022311F039
:10424000FF01E0E80423F7D1012038BD1C01002064
:1042500001490020087070471C0100200148407887
:10426000704700001C0100202DE9F001294E0023B9
:1042700013703378002B44D05B1EDBB24FF0000C80
:10428000012BC8BF756810DD0CEB0304640805EB57
:10429000C407D7E90087B8EB00088F4134BFA446B4
:1042A0002346A3EB0C04012CEEDC766806EBCC0570
:1042B000D5E9004580EA040781EA050857EA0807BE
:1042C00008BF82F800C020D0041B71EB05043FBF7B
:1042D00082F800C00020BDE8F001704706EBC30C77
:1042E000DCE9004C80EA040581EA0C06354308BF8E
:1042F00013700AD0001B71EB0C0032BF1370581CF6
:1043000010700020BDE8F0017047BDE8F001012009
:10431000704700001C0100202DE9F0410446807C1C
:10432000002816BF02280020012084F8680018B376
:10433000607E68B3D4F81300C4F86900B4F81700BD
:10434000A4F86D00A07C022816BF032801210021DB
:10435000A1764FF00800E07694F868004FF001076E
:104360004FF00008012804BF94F86E2012F0C00F2F
:104370001BD0012811D016E004F169010020FDF7DF
:10438000E3FD0028DED140F2BA412D20FCF764F9AC
:1043900040F2BE412D20FCF75FF994F86E0000F06A
:1043A000C000402801D0002000E00120207731B17A
:1043B00094F86F0004F17001FEF700FEE076FEF75E
:1043C0002DFE3749A0FB016514F0C8FA8019694138
:1043D000C4E918010026E07EFEF73CFD0546A07EFC
:1043E000002818BF002D03D0E07EFEF727FD58B14E
:1043F00094F8820000281CBF207F00281DD094F86C
:10440000680001280ED013E084F86870324604F189
:104410006901284610F0B4FFE17E04F16900FEF75F
:1044200025FD0AE094F86E0000F0C00040282FD06F
:10443000414604F1690010F092FF84F87680A0787C
:1044400010F0040F08BFBDE8F0810026E07EFEF703
:1044500047FD050008BFBDE8F0811021FEF7A0FF71
:10446000002818BFBDE8F08184F87670324604F168
:104470007701284610F084FF04F17701094CA06809
:1044800011F053FCA068BDE8F041012111F054BCCB
:10449000FEF7D0FC324604F1690110F071FFCCE761
:1044A00040420F0024010020F8B504460D4630308C
:1044B00011F0F5FFB4F802C0CCF3001129B1BDE84A
:1044C000F8402822614602F03FBBCCF340010029AE
:1044D00014BFB4F85C60B4F8546021791D4A4FF4FD
:1044E0007A73082932F8112002F2E732B2FBF3F7AF
:1044F00008BF40230AD0042908BF102306D0022990
:1045000007BF042312220823192200E0142213FB00
:1045100002F2082908BF402319D0042908BF2E231E
:1045200015D0002302290CBF182128211944114459
:1045300011FB00716FF07F0202EBC0100144CDF857
:1045400000C062792B46304601F05EFFF8BD4FF4A3
:10455000A871EBE7E46A00002DE9F04F80468FB0C8
:104560000C46C269D8E90501D8E90076D8E903A963
:104570000592CDE90301D8E90801D8F82820CDE952
:104580000601089201A812F033F8A07A60F31749E7
:10459000207860F30707B4F80100ADF800009DF83B
:1045A000000000F00101C0F3400241EA4201C0F303
:1045B000800241EA8201C0F3C00241EAC201C0F3B5
:1045C000001241EA0211C0F3401241EA4211C0F365
:1045D000801041EA801B207D6BF31F47012818BF24
:1045E000022803D0032808BF08200ED1617860F3A9
:1045F000070611F0100F0FD1A17D012918BF022964
:1046000008D0032908BF082104D040F2E921062080
:10461000FCF722F861F30F26CAF30741012908D0FD
:10462000617A01A811F0BFFF207D012102280FD17E
:104630000BE00421082808BF61F30706C6F3072032
:10464000082808BF61F30F26EAE7607D401CC1B26D
:10465000A07E401CC2B201A811F00AFF380C10F075
:10466000080F4FF0000524D101A811F018FF617860
:1046700011F0100F7FD02822594602F065FA00BFD2
:1046800040F2712100F2DB20B0FBF1F000FB01F5FC
:10469000D4F8020040F27122000A4143D4F8050028
:1046A000000A50438D4298BF0D4602D9854288BF0B
:1046B0000546A07C60F30F29207E012818BF00204A
:1046C00060F3070AD8F84C0010F022FD8346D8F8B2
:1046D0004C0010F0C9FD834528BF584698B101A988
:1046E0000A91390CADF82C108DF83460310A8DF830
:1046F00035100C950AA902F0D1F8002802BF452018
:104700000FB0BDE8F08FC8F80CA0C8F80070C8E979
:104710000165DDE90301059AC8F81090C8F81C206E
:10472000C8E90501DDE90601089AC8F82820C8E9AA
:1047300008010198C8F83000BDF80800A8F8340056
:10474000E07A002816BF02280020012088F86F00B8
:10475000E068C8F87000208AA8F87400E07D98F836
:10476000461060F3071188F846100FB04FF00000B4
:10477000BDE8F08FFFE70346F0B221494FF47A72AB
:10478000082831F8101001F2E731B1FBF2F208BF4E
:104790004FF0400C0DD0042808BF4FF0100C08D08B
:1047A000022807BF4FF0040C12214FF0080C19210A
:1047B00000E014211CFB01F1082808BF40251BD094
:1047C000042808BF2E2517D002280CBF1820282047
:1047D0002844084410FB03206FF07F0101EBC31154
:1047E0004518FDF763F9390C0091C6F30722012340
:1047F000294601F009FE43E74FF4A870E8E70000FE
:10480000E46A000002490148C8607047306B00004C
:1048100024010020114A10B500211170104CA06035
:10482000107820B140F22E312D20FBF715FF1160DA
:1048300051609160D160116151619161D1611162EA
:1048400009F02EFF09F0BCFCE068002818BF10BD7D
:1048500040F231312D20FBF7FFFE0000041B002049
:104860002401002002494860C9680968084700001F
:10487000240100200B4910B50878002818BF0C242B
:1048800001D0204610BD00240C604C608C60CC60D0
:104890000C614C618C61CC610C6209F001FF09F084
:1048A0008FFCEEE7041B0020054910B509780129AB
:1048B0001CBF002010BD01F087FF002010BD0000CC
:1048C000041B00202DE9F04104468078C0F3C000AD
:1048D00058B13C23FF222046216A02F04BF8022205
:1048E0001E4904F18600FFF75FF8A0784FF000053D
:1048F00010F0010F20D0206A3C26078809F03EFB0B
:10490000A8B9217884F8BB10A4F8BC7084F8BA6008
:10491000607B10B984F8BE5003E094F8480084F836
:10492000BE0002220E4904F1B000FFF73DF801205D
:1049300084F88100BDE8F0814FF6FF773C2609F04E
:104940001DFB0028F3D1217884F8BB10A4F8BC70BB
:1049500084F8BA60607B0028DFD1DBE7ED630100FB
:10496000856301002DE9F8430D00044616D004F1DB
:10497000300011F01AFE38B9A078C0F3C00088B139
:1049800004F1300011F03CFE04F1300011F0C8FDDC
:104990000AF032FE217925200AF0FAFD94F876100B
:1049A0004DB904E02046BDE8F84301F00DBF0022F8
:1049B000204601F0A9F82E4EB068C17811F03F0FE3
:1049C00014BF01220022017911F0100118BF01214A
:1049D000114214D011F0C7F8074604F1300011F06D
:1049E000E4FD401CC2B2204621793B4601F098FC10
:1049F0000090032304226946B06811F091F81D4F1E
:104A00004DB3BD68B06811F0AEF8804604F13000D7
:104A100011F045FD814604F1300011F0C6FDA9EB0F
:104A20000000401EC1B22079424611F0EEFD05445F
:104A3000A078C0F3C00040B1786801210544204649
:104A4000FFF732FD2844C4F82001227929460020CE
:104A50000AF086FB30B1B0680AF034FB06203870EB
:104A6000BDE8F88340F6D8512D20FBF7F5FD000096
:104A700024010020041B00202DE9F041734E0F009B
:104A8000044627D004F1300011F08FFDC0B9A078A2
:104A9000C0F3C000002838D004F1300011F0FFFC52
:104AA000054604F1300011F080FD281AC0B211F063
:104AB000C7FD71680844706004F1300011F0A0FD7A
:104AC00004F1300011F02CFD0AF096FD217925202B
:104AD0000AF05EFD5E4D94F876800021A8680180A2
:104AE000017801F0DF010170618813292DD011DCFC
:104AF000102908BF02213DD0122908BF062139D054
:104B000040F273612D20FBF7A7FD2046BDE8F04180
:104B100001F05ABE152918BF1D29F1D14FF001012E
:104B200011F0E1F8A868B8F1000F017801F0DF0199
:104B300041F02001017013D004F1770111F0F5F874
:104B40000121A86811F0F8F816E0002111F0CBF867
:104B5000A868017801F0DF0141F0200101700BE04D
:104B600004F1700111F0E1F894F86F10A86811F0E9
:104B7000E3F801E011F0B7F8A04604F16901A86874
:104B800011F0E3F898F86810A86811F0E5F860886B
:104B90001D2818BF152805D094F85420216DA86849
:104BA00011F091F8A8680AF08DFA0420307057B31C
:104BB0006088102823D004F13000B56811F06FFC34
:104BC000074604F1300011F0F0FC381A401EC0B264
:104BD0006188282201F0DEFF0544A078C0F3C00000
:104BE00030B17068054411F02FFD2844C4F820014D
:104BF0002279294600200AF0B3FA20B913E021797E
:104C0000002009F039FE6088132815D010DC102828
:104C100008BFBDE8F08112280ED000BF40F6BC519D
:104C20002D20FBF719FD40F6A8512D20FBF714FDB0
:104C3000152818BF1D28F1D12279BDE8F0414FF0A9
:104C400001014FF000000AF017BC0000041B002017
:104C5000240100202DE9F047044682B00E4690F86A
:104C600044000AF0C9FC6179FF200AF091FC8B4DE9
:104C70008B4F4FF0000866B162794FF4A5710020A8
:104C80000AF0B8FBA07810F0030F47D0002E40D0F8
:104C900044E0A86810F067FF814694F804A004F18E
:104CA000300011F0FCFBBAF1080F04BF4FF4C871DB
:104CB00040220FD0BAF1040F04BF4FF4BF7110228D
:104CC00008D0BAF1020F07BF08F11801042208F159
:104CD0002801082209F1050313FB0211BA6800FB41
:104CE0000121CA2202EBC01008443861A178C1F347
:104CF000C00111B179680844386101466279002029
:104D00000AF02EFA0028BDD140F6F9512D20FBF70C
:104D1000A3FC6279012100200AF0AEFB94F8761022
:104D20002046002E7ED061884646C1F34000002810
:104D300008BF48F0080611F0400F18BF46F04006C3
:104D4000002819BFD4F858A0B4F85C90D4F850A04B
:104D5000B4F85490A8680721A0F8008010F0C3FFB1
:104D60000021A86810F0CDFD00223146A86810F09F
:104D700039FE16F0080F16D0B4F84500BDF8001043
:104D8000022360F30B01ADF8001094F846000322F3
:104D900001099DF8010061F307108DF801006946D3
:104DA000A86810F0BDFEA86810F05CFEBA89C0F1DA
:104DB000FE00A9EB02018142A8BF014601F0FF08F5
:104DC00002EB080048453ED246F010010022A868D8
:104DD00010F008FEA86810F045FEB989C0F1FE0089
:104DE000A9EB01018142A8BF014601F0FF08A868B4
:104DF00010F092FE4044401CC6B2B4F84800B968B6
:104E00004018D4F84011401882B204F1690104F14D
:104E10003600FEF76BFB84F84400617933460122CB
:104E2000204600E036E001F07BFA0090BDF800007B
:104E30009DF80210032340EA01400190042201A9D9
:104E4000A86810F06DFEA07810F0400F0ED06079C9
:104E500094F8441094F91020FEF712FB8DF800002E
:104E6000012306226946A86810F05AFEB889424616
:104E700000EB0A01A86810F00AFDB8894044B88127
:104E8000A8680AF01FF9072038700120787002B076
:104E9000BDE8F087012200F037FEF1E72401002091
:104EA000041B00202DE9F0434C4F814683B0387835
:104EB00002281CBF3878032805D040F62D514FF04A
:104EC0002D00FBF7C9FB464C6568287B18B1FEF73F
:104ED000A5FA85F84700D4F808C061684FF00008CB
:104EE0009CF800000A6A00F00F06002A18BF92F82A
:104EF0007380B9F1000F53D001F1690391F8682074
:104F0000C0090CF1090110F003FA002848D06568C7
:104F1000052E26D1A06890F8240000F01F0010286C
:104F20001FD9E87BE8B1FF208DF800006A46052113
:104F3000284601F05DF990B395F8E8008DF804007B
:104F40009DF8040058BBA0682222C11C05F1E900AD
:104F500013F098FE0222234905F1E000FEF724FD3C
:104F60001EE04146A06810F007FEC0B13A786068C4
:104F70003146022A1CBF3A78032A05D040F6065172
:104F80004FF02D00FBF768FBE2683B7852696FF049
:104F9000070C0CEB8303D2589047054601E0FFE76E
:104FA0000125B87B18B109F07BFB09F009F9002D48
:104FB00004BF03B0BDE8F083606811F057FB38B15F
:104FC00009F0AAFBE068806803B0BDE8F043004741
:104FD000606803B0BDE8F04301F0F6BB041B00209D
:104FE000240100204164010030B583B0032902D0C0
:104FF000052972D06DE00446FF208DF800006A4656
:105000000321204601F0F4F8002862D0207B374DC0
:1050100000283CD09DF8000094F8D6108DF80410BC
:105020009DF8041099BB227884F8D720FF2811D06E
:1050300004F1D902511EFDF7A7FF30B194F8D80052
:1050400040F0020184F8D81012E041F218012D203E
:10505000FBF702FBA8680178C1F3801284F8D8201E
:10506000D0F80320C4F8D920B0F80700A4F8DD0078
:1050700094F947007F2827D084F8DF007F2184F847
:10508000471002221A4904F1CE00FEF78DFCA868F1
:1050900000210180042110F026FE04F16901A868B6
:1050A00010F053FE94F86810A86810F055FE94F8BC
:1050B0005C20A16DA86810F058FE0E49052008700C
:1050C000A86809F0FFFF0EE040F66C612D20FBF7A9
:1050D000C3FA03B0012030BDFFE70749096811B1E9
:1050E00088470028F5D003B0002030BD24010020FF
:1050F00057640100041B0020380100202DE9F04F07
:1051000083B0032908D0052900F0F48001F05CFB8E
:1051100003B00020BDE8F08F0446FF208DF80000AA
:105120006A460321204601F063F8002800F0DE8083
:10513000207B774E00283CD09DF8000094F8D610D4
:105140008DF804109DF8041099BB227884F8D720BC
:10515000FF2811D004F1D902511EFDF715FF30B11F
:1051600094F8D80040F0020184F8D81012E041F21F
:1051700018012D20FBF770FAB0680178C1F3801296
:1051800084F8D820D0F80320C4F8D920B0F807005C
:10519000A4F8DD0094F947007F287DD084F8DF0073
:1051A0007F2184F8471002225A4904F1CE00FEF70D
:1051B000FBFBA0782546C0F3801A5748BAF1000FD0
:1051C0004068C0B214BF40F0400920F040090021FF
:1051D000B0680180072110F086FD0021B06810F052
:1051E00090FB00224946B06810F0FCFB0623002229
:1051F00005F16901B06810F093FC95F86810B0688B
:1052000010F0AAFDB06810F02DFCB5F85C10C0F1EC
:10521000FE008142B8BF0846C7B2DFF80081B9423C
:1052200039D9F81EC7B249F0100B00225946B068B0
:1052300010F0D8FBB06810F06FFC3844401C00F050
:10524000FF09B5F84800D8F808104018D5F8401103
:10525000401882B205F1690105F13600FEF746F902
:1052600085F8440069794B460122284601F058F838
:105270000190BDF804009DF80610032340EA0140A8
:105280000290042202A9B06810F04AFC002259469C
:10529000B06810F0A7FB00E023E0BAF1000F0ED0D9
:1052A000687995F8441095F91020FEF7E9F88DF823
:1052B00004000123062201A9B06810F031FC3A462F
:1052C000A96DB06810F0E3FAA8F80C706179FF20BE
:1052D0000AF05EF9082088F80000B06809F0F2FED4
:1052E00012E040F66C612D20FBF7B6F9204601F084
:1052F0006BFA09E00A49096831B18847002802BF02
:10530000012003B0BDE8F08F002003B0BDE8F08FAE
:105310002401002057640100D46A0000041B00200F
:1053200034010020094A0300506801D001F04CBA52
:10533000002908BF7047D168054A096912786FF0E3
:105340000F0303EB82028958084700002401002064
:10535000041B00202DE9F041044602221849863042
:10536000FEF722FB0222174904F1C000FEF71CFBE6
:10537000B4F8905094F88F6008F000FE0027A8B9A8
:10538000217884F8BB10A4F8BC5084F8BA60607B24
:1053900000281ABF94F8480084F8BE0084F8BE7054
:1053A0000222094904F1B000FEF7FEFA074807702F
:1053B0002146206ABDE8F041022201F0B1BE0000A2
:1053C000ED630100DD63010085630100041B002023
:1053D00070B51C4D01210446A970303011F0E5F87C
:1053E00028B12046BDE870400121FFF7BBBA6088B4
:1053F000C0F3001109BBA978F9B1B4F85410002921
:1054000008BF10F0010F12D110F0020F08BF10F00A
:10541000200F0CD1686920B100F1400013F043F86F
:1054200028B9A86948B1403013F03DF828B12046AA
:10543000BDE870400021FFF70DBC2046BDE870407C
:1054400001F0C2B9041B002070B504464088102842
:1054500010D0114DA87B20B108F0F2FE402009F0D9
:105460002DF90E48806809F02DFEA07810F0040F89
:105470000BD105E02046BDE870400121FFF7FCBAE2
:1054800000212279084609F0F7FF002009F04EFCC0
:105490000220287070BD0000041B002024010020A1
:1054A00010B5084CB0F85C20A189914205D00121CB
:1054B000FFF7D0FB0820207010BDBDE8104001F0C0
:1054C00083B90000041B002070B504464088214DBC
:1054D000C0F34001002908BF10F0010F2AD04FF09F
:1054E00000016279084609F0C7FFA078C0F34000C8
:1054F000002814BF0C20222061790AF049F803200B
:105500002870A87B48B108F09BFE607910F00C0F62
:105510000CBF4020452009F0D1F8607910F00C0054
:1055200018BF282009F002FC0B488068BDE87040D5
:1055300009F0C8BDA889B4F85410884204D12046A7
:10554000BDE8704001F040B92046BDE8704001213F
:10555000FFF780BB041B00202401002070B51C4C09
:105560006568287B18B1FDF759FF85F84700194D8C
:10557000A87B18B109F094F808F022FE606811F0D9
:1055800075F8A8B160684188C1F30012002A04BF11
:10559000C1F3C00100290BD0297802291CBF29784A
:1055A00003290AD040F637414FF02D00FBF754F89D
:1055B0006068BDE8704001F007B9E1682A78C96801
:1055C0006FF0070303EB82028958BDE8704008477B
:1055D00024010020041B002070B5044641880020EF
:1055E000092918BF70BD134DA8816870012120469C
:1055F000FEF75AFF696808446860B4F84800401C28
:10560000A4F84800FEF7CAFB4FF47F71B0FBF1F23B
:1056100001FB1200696800220844686094F8761063
:10562000204600F071FA2046BDE870400121FFF7E6
:1056300099B90000041B00202DE9F04FA94D044644
:1056400089B0287800287DD12078FF287AD00020E2
:10565000A88168606870A87084F88100A24804AED0
:10566000A24F0FC886E80F00F8684068079004A8AA
:1056700009F010FB09F07EFC09F012F808F0A0FD1B
:105680009B4809F075FF9B4809F07CFF00200EF055
:10569000C3FD04F1300010F0B3FF04F1300010F04E
:1056A0003FFF09F0A9FF2179252009F071FF94F946
:1056B000100009F0FBFC2179002009F0A1F9012676
:1056C000A860002801BF2E70002009B0BDE8F08F4F
:1056D00004F15001E06C0FF08DFD814604F158019A
:1056E000E06C0FF08AFD8046B9F1000F1CBF94F802
:1056F000240000284FD000BF4FF0010A207F00286F
:1057000001BFA07E0028A07810F0040F74D0D4E967
:1057100018016FF0004281EA020171EA000008D02E
:1057200013F01CF90246D4E91830D21A71EB0000CC
:1057300002D2BAF1000F79D0FDF770FC6E49A0FBE0
:1057400001BA00E023E013F009F910EB0B0041EB84
:105750000A01C4E918014FF0010BE07EFDF77AFB66
:105760008246A07E002818BFBAF1000F03D0E07E69
:10577000FDF764FBC8B194F8820000281CBF207FAD
:1057800000282BD094F8680001281CD021E009B033
:105790000C20BDE8F08FB8F1000F1ABF94F8250077
:1057A00000284FF0000AA7D1A8E7324684F86860C5
:1057B00004F1690150460FF0E3FDE17E04F1690058
:1057C000FDF754FB0AE094F86E0000F0C00040289A
:1057D00013D0594604F169000FF0C1FDA07810F014
:1057E000040F23D0E07EFDF77BFB5FEA000A1DD0AB
:1057F0001021FDF7D5FD40B118E0FDF71BFB324647
:1058000004F169010FF0BCFDE8E7324684F87660E8
:1058100004F1770150460FF0B3FD04F17701B86849
:1058200010F083FA0121B86810F086FA94F8841019
:1058300049EA08008DF800109DF80010002918BFF3
:105840000121084319D0A078C0F30010002804BF3C
:10585000B4F84500C0F30B060FD100BFFEF79EFA67
:10586000C0F30B00B042F9D0B4F8451060F30B015F
:10587000A4F84510002084F88400B868C01CFDF727
:10588000C5FAA873A07810F0010F27D01B48D0E903
:105890000210CDE90210FF20287702A8266AFBF744
:1058A00089FED8B9029CB44213D0727A607A06F1AC
:1058B0000A0304F10A010FF02BFD50B1A0782877FC
:1058C000D4F80300C5F81D00B4F80700A5F82100BE
:1058D00004E002A8FBF76EFE0028E3D009B0002028
:1058E000BDE8F08F041B0020F86A000024010020AE
:1058F000D6BE898E5555550040420F00D46A00002F
:1059000070B582B00446FFF797FE00281CBF02B0B6
:1059100070BD20780321FBF743FD224D052168610E
:105920002078FBF73DFDA8616969002918BF0028B0
:1059300005D040F694214FF02D00FAF78DFE28781F
:1059400001282BD094F88300002650B16846FDF75B
:10595000ABFD30B1694604F136000FF029FF84F841
:105960008360B4F84800A9684018D4F84011401882
:1059700082B204F1690104F13600FDF7B7FD84F845
:105980004400A0784FF00001C0F30010002820462A
:1059900002D0FFF771F801E0FEF7E4FF02B000204B
:1059A00070BD0000041B00202DE9F041544D554C02
:1059B0006E6820780027002808BFBDE8F0812078B5
:1059C00002281CBF207803280CD1307B20B1B046C0
:1059D000FDF724FD88F84700A07B18B108F060FEB1
:1059E00008F0EEFB0EF0FCFB287878B1304610F0A2
:1059F0003DFE58B168684188C1F3C00282B30929ED
:105A000009D0BDE8F0410121FFF736B83046BDE8C6
:105A1000F04100F0D9BEA781064667700121FEF76C
:105A200043FD616808446060B6F84800401CA6F871
:105A30004800FEF7B3F94FF47F71B0FBF1F201FBC0
:105A40001200616800220844606096F876103046C3
:105A500000F05AF86868BDE8F0410121FEF782BF06
:105A600062781AB1BDE8F04100F0AEBEC1F300119A
:105A700079B10446303010F098FD28B12046BDE8D9
:105A8000F0410121FEF7F8BF2046BDE8F04100F0EB
:105A90009BBE0546303010F088FD28B12846BDE891
:105AA000F0410121FEF75EBF6888C0F3001109BB19
:105AB000A178F9B1B5F85410002908BF10F0010F12
:105AC00012D110F0020F08BF10F0200F0CD1606946
:105AD00020B100F1400012F0E6FC28B9A06948B1FD
