:1000000080AF0020AD160200FF45040081160200FB
:100010008116020081160200811602000000000015
:10002000000000000000000000000000BD0E020003
:1000300081160200000000002D0E02008116020051
:100040002D100200138F04002D1002002D1002004D
:100050002D1002002D1002002D1002002D100200A4
:10006000C18E04002D1002002D100200F98E040034
:100070002D1002002D1002002D1002002D10020084
:100080002D1002002D1002002D1002002D10020074
:100090002D1002002D1002002D1002002D10020064
:1000A0002D1002002D1002002D1002002D10020054
:1000B0002D1002002D1002002D1002002D10020044
:1000C0002D1002002D1002002D1002002D10020034
:1000D0002D1002002D1002002D1002002D10020024
:1000E0002D1002002D1002002D1002002D10020014
:1000F0002D1002002D1002002D1002002D10020004
:1001000001F0FF01102A2BDB10F0070F08D010F8C8
:10011000013B013A8B422DD010F0070F42B3F6D1CC
:10012000F0B441EA012141EA014122F007047FF0E5
:1001300000070023F0E80256083C85EA010586EA3C
:10014000010685FA47F5A3FA87F586FA47F6A5FA78
:1001500087F68EB9EED1F0BC01F0FF0102F0070284
:1001600032B110F8013B013A83EA010313B1F8D12F
:100170000020704701387047002D06BF3546033810
:10018000073815F0010F07D1013015F4807F02BF49
:10019000013015F4C03F0130F0BC0138704700BF9A
:1001A00081F0004102E000BF83F0004330B54FEA28
:1001B00041044FEA430594EA050F08BF90EA020F95
:1001C0001FBF54EA000C55EA020C7FEA645C7FEA28
:1001D000655C00F0E2804FEA5454D4EB5555B8BF4B
:1001E0006D420CDD2C4480EA020281EA030382EABC
:1001F000000083EA010180EA020281EA0303362D4E
:1002000088BF30BD11F0004F4FEA01314FF4801C20
:100210004CEA113102D0404261EB410113F0004F32
:100220004FEA03334CEA133302D0524263EB4303E9
:1002300094EA050F00F0A780A4F10104D5F1200E87
:100240000DDB02FA0EFC22FA05F2801841F10001E2
:1002500003FA0EF2801843FA05F359410EE0A5F1B6
:1002600020050EF1200E012A03FA0EFC28BF4CF0E7
:10027000020C43FA05F3C01851EBE37101F000459D
:1002800007D54FF0000EDCF1000C7EEB00006EEBAA
:100290000101B1F5801F1BD3B1F5001F0CD3490834
:1002A0005FEA30004FEA3C0C04F101044FEA44528B
:1002B00012F5800F80F09A80BCF1004F08BF5FEA12
:1002C000500C50F1000041EB045141EA050130BDF2
:1002D0005FEA4C0C404141EB0101013C28BFB1F504
:1002E000801FE9D291F0000F04BF01460020B1FA4F
:1002F00081F308BF2033A3F10B03B3F120020CDA22
:100300000C3208DD02F1140CC2F10C0201FA0CF0FF
:1003100021FA02F10CE002F11402D8BFC2F1200C64
:1003200001FA02F120FA0CFCDCBF41EA0C0190401A
:10033000E41AA2BF01EB0451294330BD6FEA040463
:100340001F3C1CDA0C340EDC04F11404C4F120024E
:1003500020FA04F001FA02F340EA030021FA04F360
:1003600045EA030130BDC4F10C04C4F1200220FAB7
:1003700002F001FA04F340EA0300294630BD21FAF5
:1003800004F0294630BD94F0000F83F4801306BFBB
:1003900081F480110134013D4EE77FEA645C18BFAF
:1003A0007FEA655C29D094EA050F08BF90EA020F46
:1003B00005D054EA000C04BF1946104630BD91EA3E
:1003C000030F1EBF0021002030BD5FEA545C05D141
:1003D0004000494128BF41F0004130BD14F5800480
:1003E0003CBF01F5801130BD01F0004545F0FE41F4
:1003F00041F470014FF0000030BD7FEA645C1ABF29
:10040000194610467FEA655C1CBF0B46024650EA5F
:10041000013406BF52EA033591EA030F41F400218B
:1004200030BD00BF90F0000F04BF0021704730B511
:100430004FF4806404F132044FF000054FF00001E6
:1004400050E700BF90F0000F04BF0021704730B5A7
:100450004FF4806404F1320410F0004548BF40427C
:100460004FF000013EE700BF42004FEAE2014FEAD1
:1004700031014FEA02701FBF12F07F4393F07F4FAC
:1004800081F06051704732F07F4208BF704793F0AF
:100490007F4F04BF41F40021704730B54FF46074C2
:1004A00001F0004521F000411CE700BF50EA0102C5
:1004B00008BF704730B54FF000050AE050EA01026E
:1004C00008BF704730B511F0004502D5404261EBDE
:1004D00041014FF4806404F132045FEA915C3FF41F
:1004E000D8AE4FF003025FEADC0C18BF03325FEABC
:1004F000DC0C18BF033202EBDC02C2F1200300FA6D
:1005000003FC20FA02F001FA03FE40EA0E0021FA91
:1005100002F11444BDE600BF70B54FF0FF0C4CF47F
:10052000E06C1CEA11541DBF1CEA135594EA0C0F31
:1005300095EA0C0F00F0DEF82C4481EA030621EA6C
:100540004C5123EA4C5350EA013518BF52EA0335A7
:1005500041F4801143F4801338D0A0FB02CE4FF059
:100560000005E1FB02E506F00042E0FB03E54FF089
:100570000006E1FB03569CF0000F18BF4EF0010E81
:10058000A4F1FF04B6F5007F64F5407404D25FEA7D
:100590004E0E6D4146EB060642EAC62141EA555130
:1005A0004FEAC52040EA5E504FEACE2EB4F1FD0C72
:1005B00088BFBCF5E06F1ED8BEF1004F08BF5FEAF0
:1005C000500E50F1000041EB045170BD06F00046A2
:1005D00046EA010140EA020081EA0301B4EB5C044F
:1005E000C2BFD4EB0C0541EA045170BD41F4801147
:1005F0004FF0000E013C00F3AB8014F1360FDEBF6C
:10060000002001F0004170BDC4F10004203C35DA47
:100610000C341BDC04F11404C4F1200500FA05F3CA
:1006200020FA04F001FA05F240EA020001F000426B
:1006300021F0004110EBD37021FA04F642EB0601E1
:100640005EEA430E08BF20EAD37070BDC4F10C040B
:10065000C4F1200500FA04F320FA05F001FA04F2CF
:1006600040EA020001F0004110EBD37041F10001BB
:100670005EEA430E08BF20EAD37070BDC4F12005C6
:1006800000FA05F24EEA020E20FA04F301FA05F22E
:1006900043EA020321FA04F001F0004121FA04F2D6
:1006A00020EA020000EBD3705EEA430E08BF20EAA6
:1006B000D37070BD94F0000F0FD101F000464000E0
:1006C00041EB010111F4801F08BF013CF7D041EA62
:1006D000060195F0000F18BF704703F00046520066
:1006E00043EB030313F4801F08BF013DF7D043EA37
:1006F0000603704794EA0C0F0CEA135518BF95EAED
:100700000C0F0CD050EA410618BF52EA4306D1D173
:1007100081EA030101F000414FF0000070BD50EA92
:10072000410606BF1046194652EA430619D094EA1C
:100730000C0F02D150EA013613D195EA0C0F05D106
:1007400052EA03361CBF104619460AD181EA03015A
:1007500001F0004141F0FE4141F470014FF0000012
:1007600070BD41F0FE4141F4780170BD70B54FF0AD
:10077000FF0C4CF4E06C1CEA11541DBF1CEA13552D
:1007800094EA0C0F95EA0C0F00F0A7F8A4EB05040F
:1007900081EA030E52EA03354FEA013100F0888006
:1007A0004FEA03334FF0805545EA131343EA1263CF
:1007B0004FEA022245EA111545EA10654FEA002684
:1007C0000EF000419D4208BF964244F1FD0404F53D
:1007D000407402D25B084FEA3202B61A65EB030599
:1007E0005B084FEA32024FF480104FF4002CB6EB56
:1007F000020E75EB030E22BFB61A754640EA0C00D6
:100800005B084FEA3202B6EB020E75EB030E22BF15
:10081000B61A754640EA5C005B084FEA3202B6EB56
:10082000020E75EB030E22BFB61A754640EA9C0015
:100830005B084FEA3202B6EB020E75EB030E22BFE5
:10084000B61A754640EADC0055EA060E18D04FEAA3
:10085000051545EA16754FEA06164FEAC30343EA43
:1008600052734FEAC2025FEA1C1CC0D111F4801F10
:100870000BD141EA00014FF000004FF0004CB6E709
:1008800011F4801F04BF01430020B4F1FD0C88BFA8
:10089000BCF5E06F3FF6AFAEB5EB030C04BFB6EBB3
:1008A000020C5FEA500C50F1000041EB045170BDA6
:1008B0000EF0004E4EEA113114EB5C04C2BFD4EBD3
:1008C0000C0541EA045170BD41F480114FF0000E57
:1008D000013C90E645EA060E8DE60CEA135594EAD3
:1008E0000C0F08BF95EA0C0F3FF43BAF94EA0C0FD6
:1008F0000AD150EA01347FF434AF95EA0C0F7FF44B
:1009000025AF104619462CE795EA0C0F06D152EA9E
:1009100003353FF4FDAE1046194622E750EA410682
:1009200018BF52EA43067FF4C5AE50EA41047FF493
:100930000DAF52EA43057FF4EBAE12E74FF0FF3CF8
:1009400006E000BF4FF0010C02E000BF4FF0010CC9
:100950004DF804CD4FEA410C7FEA6C5C4FEA430C42
:1009600018BF7FEA6C5C1BD001B050EA410C0CBF91
:1009700052EA430C91EA030F02BF90EA020F0020F3
:10098000704710F1000F91EA030F58BF994208BF5A
:1009900090422CBFD8176FEAE37040F00100704717
:1009A0004FEA410C7FEA6C5C02D150EA013C07D16E
:1009B0004FEA430C7FEA6C5CD6D152EA033CD3D0B9
:1009C0005DF8040B704700BF8446104662468C46B3
:1009D0001946634600E000BF01B5FFF7B7FF0028E6
:1009E00048BF10F1000F01BD4DF808EDFFF7F4FF0F
:1009F0000CBF012000205DF808FB00BF4DF808ED9A
:100A0000FFF7EAFF34BF012000205DF808FB00BFBC
:100A10004DF808EDFFF7E0FF94BF012000205DF8DE
:100A200008FB00BF4DF808EDFFF7CEFF94BF012093
:100A300000205DF808FB00BF4DF808EDFFF7C4FF8C
:100A400034BF012000205DF808FB00BF53B94AB94C
:100A5000002908BF00281CBF4FF0FF314FF0FF30C6
:100A600000F00CB8ADF1080C6DE904CE16F054F8A6
:100A7000DDF804E0DDE9022304B07047704700BFF1
:100A80002DE9F00791E8F807B2E802105B1854EB83
:100A90000C04B2E802104D4156EB0C06B2E802100D
:100AA0004F4158EB0C08B2E8021059EB01095AEB20
:100AB0000C0A80E8F80780410130BDE8F007704774
:100AC0002DE9F00791E8F807B2E802105B1A74EB21
:100AD0000C04B2E802108D4176EB0C06B2E802106D
:100AE0008F4178EB0C08B2E8021079EB01097AEB40
:100AF0000C0A80E8F80780414042BDE8F0077047E3
:100B00002DE9F007524290E87800B1E880071740DD
:100B1000DB1918EA020854EB080419EA020955EB3C
:100B200009051AEA020A56EB0A0678C090E878002E
:100B3000B1E8800717407B4118EA020854EB08042B
:100B400019EA020955EB09051AEA020A56EB0A06E8
:100B500078C080410130BDE8F00770472DE9F0070B
:100B6000524290E87800B1E880071740DB1B18EA92
:100B7000020874EB080419EA020975EB09051AEA80
:100B8000020A76EB0A0678C090E87800B1E88007A0
:100B90001740BB4118EA020874EB080419EA02097D
:100BA00075EB09051AEA020A76EB0A0678C080415D
:100BB0004042BDE8F00770472DE9F00152424FF086
:100BC000040890E8300091E8C000A31B1340E41A29
:100BD000F618EB1B1340ED1AFF1830C0C0C1B8F176
:100BE0000108EED1BDE8F001704700BF00B592ECFE
:100BF000080AB1E8805707EE101A53EC102A56EC99
:100C0000114AA7FB0251A8FB020BE7FB6310E9FBAB
:100C100062B041EC145AA8FB0351EAFB6201E7FB06
:100C200064B5E7FB6605E8FB661505EE10BAA9FB9F
:100C300003B6EAFB6316ECFB6356E8FB640BE9FBC7
:100C4000641BEAFB645BECFB646B05EE900AACFB97
:100C5000023012EE104AEEFB6250E9FB6460EAFBE0
:100C600064B0E7FB6431E8FB645112EE904AE8FBA4
:100C70006461E9FB64B1EAFB640106EE103AA7FB8C
:100C8000043213EE104AE7FB6462E8FB64B2E9FB4E
:100C90006402EAFB641211EE904AE9FB6453EAFB3A
:100CA000646313EE904AE7FB64B3E8FB6403E9FB7B
:100CB0006413EAFB642306EE905A17EE109A99E843
:100CC000000610EE108AA9FB0854EAFB68B412EE85
:100CD000108AECFB6804EEFB6814E9FB6824EAFB6D
:100CE000683410EE908AEEFB6865E9FB68B5EAFBB4
:100CF000680512EE908AECFB6815EEFB6825E9FBAF
:100D00006835EAFB684507EE106A11EE108AAEFB03
:100D10000876E9FB6806EAFB681613EE108AECFB1E
:100D20006826EEFB6836E9FB6846EAFB685611EE7A
:100D3000908AECFB68B7EEFB6807E9FB6817EAFBF3
:100D4000682713EE908AECFB6837EEFB6847E9FBF7
:100D50006857EAFB686700BD2DE9F04F07EE900A7F
:100D6000FFF744FF17EE908A07EE90BAA8EC084A06
:100D700088E8FF00BDE8F08F00B591E89857A3FB25
:100D80000352A3FB0401E3FB6420E3FB671042EC86
:100D9000145AA3FB0752E3FB6802E4FB6415E3FB70
:100DA0006805E3FB6925A4FB07B6E3FB6926E3FBC3
:100DB0006A56E4FB670BE4FB682BE3FB6A5BE3FB2F
:100DC0006C6B40EC151AA4FB0810E4FB6950E3FBC4
:100DD0006C60E3FB6EB0E7FB6721E4FB6951E4FB69
:100DE0006A61E3FB6EB1E4FB6E0106EE102AA7FB1D
:100DF0000832E4FB6A62E4FB6CB2E4FB6E02E7FBE0
:100E00006E12E7FB6853E7FB6963E4FB6CB3E7FB37
:100E10006C03E7FB6E13E8FB6E2306EE905AA7FB0C
:100E20000954E7FB6AB4E7FB6C04E8FB6C14E8FBCD
:100E30006E24E9FB6E34E8FB6865E7FB6AB5E8FB06
:100E40006A05E8FB6C15E9FB6C25E9FB6E35EAFBEE
:100E50006E4507EE106AA8FB0976E8FB6A06E9FB17
:100E60006A16E9FB6C26EAFB6C36EAFB6E46ECFB85
:100E70006E56E8FB69B7E9FB6907E9FB6A17EAFB0D
:100E80006A27EAFB6C37ECFB6C47ECFB6E57EEFB1A
:100E90006E6700BD2DE9F04F07EE900AFFF76CFF7B
:100EA00017EE908A07EE90BAA8EC084A88E8FF008F
:100EB000BDE8F08F30B44FF0000310F8014B11F88B
:100EC000015B013A84EA050443EA0403F5D1A3F186
:100ED00001034FEAD37030BC704700BF4FF00003EE
:100EE00010F8012B013943EA0203F9D1A3F1010300
:100EF0004FEAD370704700BF30B411F8014B12F8BD
:100F0000015B6C4000F8014B013BF6D130BC7047EF
:100F10002DE9F00791E8F807B2E802105B1854EBEE
:100F20000C04B2E802104D4156EB0C06B2E8021078
:100F30004F4158EB0C08B2E8021059EB01095AEB8B
:100F40000C0A8941B3F1FF3374F1FF3475F1FF35B9
:100F500076F1000677F1000778F1000879F10109D0
:100F60007AF1FF3A51F100015B184C414D4156F1C5
:100F7000000657F1000758F1000859EBD1795AEBF8
:100F8000010A80E8F807BDE8F00770472DE9F0078F
:100F900091E8F807B2E802105B1A74EB0C04B2E8AF
:100FA00002108D4176EB0C06B2E802108F4178EB0F
:100FB0000C08B2E8021079EB01097AEB0C0A8941BE
:100FC0005B184C414D4156F1000657F1000758F1AE
:100FD000000859EBD1795AEB010A80E8F807BDE81F
:100FE000F007704718EB040859EB05095AEB060A9D
:100FF0005BEB070B5FF0000C4CF1000C18EB0508E5
:1010000059EB06095AEB070A5BEB070B50EB0C0098
:101010005FF0000C51EB0C0152EB0C0263414CF100
:10102000000CB8EB070879F100097AF1000A7BEBB4
:10103000040BA841B141A241B3416CF1000CBBEBE0
:10104000050BB041B941AA41BB416CF1000C4CF019
:1010500001068CF0020718EB060859EB6C095AEBF5
:101060006C0A7BEB6C0B70EB6C0471EB6C0572EB38
:10107000670653EB6C076CEB6C0C18EB0C0059EB30
:101080000C015AEB0C025BF1000354F1000455F122
:10109000000556EBDC7657EB0C0770472DE9F04F57
:1010A00007EE900AFFF7A2FD59EC168A17EE10AA78
:1010B000FFF798FF59EC148A5BEC15AAFFF792FF33
:1010C00017EE908A88E8FF00BDE8F08F2DE9F04F19
:1010D00007EE900AFFF750FE59EC168A17EE10AA99
:1010E000FFF780FF59EC148A5BEC15AAFFF77AFF33
:1010F00017EE908A88E8FF00BDE8F08F4FEA410CB8
:101100007FEA6C5C02D150EA013C0AD14FEA430C01
:101110007FEA6C5C02D152EA033C02D14FF000003E
:1011200070474FF0010070474FEA410212F500127C
:1011300015D211D56FF47873B3EB625212D94FEA1E
:10114000C12343F0004343EA505311F0004F23FA08
:1011500002F018BF404270474FF00000704750EA5D
:10116000013005D111F0004008BF6FF0004070471A
:101170004FF00000704700BF1FB51A4C207A8DF861
:101180000100E0798DF80000A079ADF804006079E5
:10119000ADF8020068460EF02DFE08B1AD211CE04E
:1011A000E068029002A80EF03BFE08B1B12114E005
:1011B0000D480068039003A819F076FC08B1B5212A
:1011C0000BE0A07E0EF05EFE08B1BE2105E0607E61
:1011D0000EF052FE002803D0BF21032000F05EFA7B
:1011E0001FBD0000E01F0020A81700003EB5044608
:1011F0000068C01D20F007002060002000900190D2
:10120000029008788DF8010048788DF802008878FF
:101210008DF80300C8788DF8040008798DF8050072
:10122000C87D8DF80600487F8DF80800887F8DF80E
:101230000900C87F8DF80A0091F820008DF80B0096
:101240000848407910B108798DF807000AB10020EC
:1012500000E02068694601F0FBF82168084420603E
:101260003EBD000040000020F8B5044688781646D0
:101270000D4688B12068C01C20F003002060E97D85
:10128000EA786B8A1144CAB2A97806B1002001F04D
:10129000E7FB216808442060654FF87898B1287C06
:1012A00088B1387908B1FF2200E025222068C01CEF
:1012B00020F003002060297C06B1002001F064FCCE
:1012C000216808442060287D90B1A87818B9F87882
:1012D00070B1287C60B12068C01D20F0070020603C
:1012E000297D06B1002004F0CDFA21680844206071
:1012F0005048036873B1287960B12068C01C20F0A1
:10130000030020606A7D297906B100209847216892
:1013100008442060484802686AB1A87D58B1206836
:10132000C01C20F003002060A97D06B1002090477A
:101330002168084420604148D0F800C0BCF1000F8B
:1013400011D0E87D78B12068C01C20F00300206037
:10135000A97E00916B7E2A7EE97D06B10020E047E0
:10136000216808442060787978B1287968B12068CC
:10137000C01C20F0030020602A7F297906B10020DC
:1013800001F028FC21680844206095F82100B8B1DC
:101390002068C01D20F0070020605EB195F8211084
:1013A0005FF000004FF4887216F06AFA2168084472
:1013B000206009E011F098FA95F821102068F1E713
:1013C00016B9002011F090FA95F8220038B3206881
:1013D000C01D20F00700206095F8221006B1002003
:1013E000FF2216F04DFA276833463844C01C20F01F
:1013F000030040F004022260A97F012001F01CFCE0
:101400002168002E0844206010D1384611F072FA8D
:1014100095F82200BDE8F840FB2111F071BA002ECA
:1014200004D1BDE8F840002011F064BAF8BD000016
:10143000400000204C0000205400002050000020FC
:1014400010B528B1142204491AF08DFD002010BDFA
:101450006FF0150010BD0000D01700002DE9F0411D
:101460006FF02C06002871D1474C607810B1B01194
:10147000BDE8F081002976D06FF01500002AF7D082
:10148000424B11299D7879D2DFE801F078090C0FE1
:101490001F224A5269285558642D323F4500107862
:1014A000187060E0107858705DE091780029DFD006
:1014B000D1780029DCD011781B29D9D351781B2988
:1014C000D6D31068C3F805004DE01068D8604AE034
:1014D0001178DA789142CBD3997044E01178A9421F
:1014E000C6D8D9703FE01178A942C1D8D9753AE081
:1014F00011780029BCD05178F929B9D80029B7D082
:1015000010881883907898762DE01078D876107827
:101510000FF0DAF927E011780029A9D0197722E035
:10152000E17811B111780229A2D3107818741AE069
:101530001088588217E01078187114E0617900293A
:10154000117804D0002993D059750CE016E00229D7
:101550008ED3F9E7117808298AD8997503E01188A4
:10156000FF2985D8197501220849002015F036FC9D
:10157000B0F5803F04DB6FF00B0079E7304677E78A
:101580000121A17074E7000040000020E01F00204E
:1015900010B5074C607820B10FF04CF8207815F0AA
:1015A0000DF901F0A7FB01F07FFC0020607010BD79
:1015B0004000002070B50C46050002D00CB1600759
:1015C00002D06FF0150070BD00F028F9A8B12846D0
:1015D00015F0BAF80A4D00220A492870204615F085
:1015E000FDFB1AF05EF9002128780EF0FFFFFFF7EF
:1015F000C3FD01206870002070BD4FF0FF3070BD4A
:1016000040000020E01F002030B589B005000CD05C
:1016100015F042F84FF0FF3420B114F0D5FEB0F5CC
:10162000FA7F05D9204609B030BD6FF01500FAE702
:10163000154C1648A56000F0ABFD00206070A0704E
:10164000E070207160710146242268461AF005FDA1
:1016500024220F4968461AF086FC242269460D4868
:101660001AF081FCEFF3108472B601F051FB0A48C6
:1016700001F026FC18B1CB21032000F00FF804B9CB
:1016800062B60020CFE70000400000207911000082
:10169000AC170000E01F0020491800000EB572B61C
:1016A000154A9568DDB1002203466E460A2403E020
:1016B000B0FBF4F0521CD2B20028F9D1B0540AE0C9
:1016C000D8B2B0FBF4F7B3FBF4F304FB1700521EDF
:1016D000D2B23030B054002AF2D13046A847BFF31E
:1016E0004F8F06480168064A01F4E061114301602A
:1016F000BFF34F8F00BFFDE7400000200CED00E07E
:101700000400FA05064810B581784078014302D0FC
:101710004FF0FF3010BD0EF09FFF002010BD000005
:1017200040000020074810B581784278114302D06C
:101730004FF0FF3010BD0121C17001710EF09EFF0E
:10174000002010BD40000020064810B58178407888
:10175000014302D04FF0FF3010BD19F0AAFB00206A
:1017600010BD000040000020064810B58178407888
:10177000014302D04FF0FF3010BD0EF091FF00206A
:1017800010BD000040000020064810B58178407868
:10179000014302D04FF0FF3010BD19F0D0FB002004
:1017A00010BD000040000020010000000101010008
:1017B000001B1B03020000004C1D000003001F0063
:1017C00008020000014900000100000000000000C4
:1017D000E07E2EC15E0585234615DCFA8E297D70DC
:1017E0001093A5FC054A10B5526812B1BDE810402F
:1017F000104792210420FFF751FF00000420002031
:10180000054A10B5926812B1BDE810401047982102
:101810000420FFF743FF0000042000200548016872
:1018200029B1416819B1806808B1012070470020D2
:10183000704700000420002002490DC881E80D0017
:101840000020704704200020F8B5124C00262568BF
:1018500011E00098022802D003280CD106E020688D
:1018600010B10020266005E028210CE0206868B156
:1018700001202660A847684601F0E8FA0028E8D071
:10188000052805D035210420FFF708FF2D21FAE7B0
:10189000F8BD0000580000202DE9FC41334E0546FC
:1018A000001D06F584773060387858B1BA783C4628
:1018B000791C2846921C1AF056FB00202070042048
:1018C000BDE8FC81294803F0E7F80446022804D06B
:1018D000042C07D0082C42D045E02449284615F0B6
:1018E000F2FA40E030780A2802D0262815D10FE01D
:1018F00005213E2000F03EF878B9B088ADF8000030
:1019000001A9684615F035FC0028CDD0A8210CE0CF
:101910001A213E2000F02EF850B11449284600F05C
:101920004DF8B0F5817F11D3C7210820FFF7B6FE2F
:101930000F4801A900680090F088ADF800006846E3
:1019400015F033FC0028AFD0BA21EEE70028ABD069
:10195000A978287800F00EF80028A5D003E0034904
:10196000284615F0DEFA2046AAE7000010200020E5
:10197000B819000070B50C46054600F0B3FB00280E
:1019800002D03E2D01D0012070BD122C06D1064898
:101990000178022902D040780028F5D02046BDE821
:1019A000704000F0B1BB00003804002001494870CD
:1019B0007047000038040020000011002DE9F84FA6
:1019C000044691F800C00D4600203E26A21CE31CF0
:1019D000FF274FF010094FF0030E4FF01A0B04F1E0
:1019E0000D014FF0120ABCF1320F75D2DFE80CF096
:1019F00074334B4E52FD74ADB6C4FEFBFAF9F8F7E2
:101A0000F61974757492F5F4F3F274F174F0EFEE64
:101A1000ED74ECEBEAE9E8E7E6E5E4E3E2E1E0DFD8
:101A200074DE0E2020706879E070B5F80500000AB9
:101A300020712879A070B5F805008338B0F5005FF3
:101A400003D03621C720FFF729FE7246E91D601D2D
:101A50001AF089FAFEE20C2020702879A0706879CB
:101A6000E070B5F80500000A2071E8796071287A05
:101A7000A0712889000AE071A87A20726889000A9A
:101A8000607208207FE284F8009001E084F800B0E2
:101A900028793AE126700220A07015F8040FE07052
:101AA000A87A207168786071D5F80200C4F8060041
:101AB000E8886081287A20732E7A1F2E00D31F2693
:101AC0000846324605F10B011AF04DFA0D36697AD7
:101AD000A155761EF0B254E258E226700B20A07099
:101AE0002879E07068792071A8796071D5F80700CD
:101AF000C4F80600B5F80B006081687B2073D5F848
:101B00000E00C4F80D00688AA4F81100287DE07466
:101B1000504638E2292000F0F7FA48B12670292013
:101B2000A0702122291DE01C1AF01DFA22202AE2B1
:101B30000A2000F0E9FA00282946204602D015F0D4
:101B400050FA1EE215F024FA1BE226701420A07051
:101B50002879E070A888000A207157E13E202070A3
:101B60000420107068681860A8685860A8891881F7
:101B7000A87B98720C2006E2267084F802E028798F
:101B8000E070A8792071E888000A6071287AA07155
:101B90002889000AE071A87A20726889000A6072B8
:101BA000287BA072A889000AE07245E254E227E28D
:101BB00008E233E242E2FAE1EAE1C5E1B9E1EFE14C
:101BC000A5E14EE124E11BE10DE1F5E0F1E0E9E002
:101BD000BFE0ADE097E09BE042E03EE053E04DE047
:101BE00031E025E018E015E000E055E02670052022
:101BF000A0702879E070A888000A2071D5F8060046
:101C0000C4F80500D5F80A00C4F80900E889A4F86A
:101C10000D0036E2112037E0052020702879A070F1
:101C20006879E070B5F80500000A2071E879C6E12E
:101C3000082020702879A070A879E070E888000A50
:101C40002071287ABBE1302020702879A070A87913
:101C5000E070E888000A2071A0E126700720B3E157
:101C600026700C20A0702879E070A8792071E8888F
:101C7000000A6071287AA071687A56E0291D204612
:101C800000F002FA7DE1572020702879A070A88822
:101C9000000AE070022076E126700D22A2702A79F7
:101CA000E270EA89A2806A79A271D5F80620C4F8A8
:101CB00007206A89A4F80B202A7C20466273291D1C
:101CC0006A7C82738A7BC2738A7E02744A7A427407
:101CD000B1F81120ADF800204282CA7C02754A6931
:101CE000C0F815200A8BA0F819200A7AC2760D7A5E
:101CF000E52D00D3E5252A461C301C311AF033F9B6
:101D00001A35E8B23DE126701120A07001203AE1B9
:101D1000267084F802A02879E07068792071A8798B
:101D20006071E888000AA071287AE07106202AE133
:101D30002670242000F0E8F908B124205DE00E2090
:101D4000A0700F263246291DE01C1AF00CF9701CF9
:101D500017E12670252000F0D7F940B12520A070AA
:101D60000A263246291DE01C1AF0FDF80FE00F206C
:101D7000A070A988A4F80310A9796171E979A1710B
:101D8000297AE171297B2172697B61720726A0198A
:101D90006A7B05F10E01C01C1AF0E5F8687B761C21
:101DA0003044EEE0267084F80290A888A4F803007E
:101DB000F4E02670202025E126702120A0702879EB
:101DC000E07068792071B5F80500000A6071E87963
:101DD000A071287AE071687A2072A87A6072E87A35
:101DE000A0720920CFE02670262000F08DF918B1EE
:101DF0002620A0701726A5E71820A0701326A1E7BB
:101E000026702720A070A888A4F80300A879D6E03F
:101E100026702820A0706968002604F10308C4F821
:101E20000310304615E000BF08EB0600A919071D96
:101E300051F8080F38608888B8807A79B81D891DF4
:101E40001AF091F87879B61D304486B209F1010094
:101E5000C0B298F8031081464945E5D8761DB0B266
:101E60008FE026701920A0702879E07068792071C1
:101E7000B5F80500000A6071E888000AA071D5F87D
:101E80000600000CE071D5F80600000E2072B5F8CF
:101E90000900000A6072D5F80900000CA072D5F89C
:101EA0000900000EE072A889000A2073E868000C9F
:101EB0006073E868000EA073B5F80F00000AE073C5
:101EC000D5F80F00000C2074D5F80F00000E6074D8
:101ED000E87CA074287DE074687D2075A87D60751D
:101EE000E87DA075287EE075687E2076A87E607605
:101EF000688B000AA076287FE076A88B000A2077FE
:101F0000A87F6077E88B000AA0771D203BE0267051
:101F100084F802B02879E070A888000A2071A879B6
:101F20006071E888000AA071287AE071687A2072EE
:101F300090E018463E23237022231370291D13229C
:101F40001AF011F814201EE03E2020701D201070A1
:101F50001E462D1D0E22294630461AF004F8002197
:101F6000084609E005EB400206EB4003891CD289D4
:101F7000401CDA8189B2C0B26A7B8242F2D80F314A
:101F800088B2002802D06070801C80B2BDE8F88F53
:101F90003E2020701E201070A88818800320F2E7D1
:101FA0003E2020701F2010706868186034E0277091
:101FB000A120A0702879E0706879207100206071FC
:101FC0000420E0E72770A220A0702879E070A8889C
:101FD000000A2071A8796071E888000AA071287A47
:101FE000E0712889000A2072A87A60726889000A64
:101FF000A072287BE072A889000A20730B20C2E738
:102000002770A320A0702879E070A888000A2071AA
:10201000A8796071E879A0710520B4E726701320D3
:10202000A0702879E07068792071D5F80600C4F8AE
:1020300005006889A4F809000A20A4E72770A420F5
:10204000A0702879E070A888000A2071A8796071D2
:10205000E879A071072096E727708020A070A988F2
:10206000A4F80310E988A4F80510297AE1716989B8
:102070002181A9896181E989A181297C01F001017E
:10208000A1730D207FE7000070B50A7882703AB323
:10209000012A25D81323037000230AE001EB43042F
:1020A00000EB4305A678EE706488240A5B1C2C7153
:1020B000DBB29342F2D300230BE000BF01EB4305F8
:1020C00000EB43042E796671AD882D0A5B1CA57167
:1020D000DBB29342F2D3012101EB8200C0B270BDAA
:1020E000002070BD402803D2401EC1B2054805E063
:1020F000FF2805D04038C1B20248083014F0A5BF0F
:10210000012070475C000020401EC1B2014814F05D
:102110009CBF00006C000020024902680A61406810
:10212000486170475C000020054902680A60406809
:1021300042F48C220A60034A104348607047000052
:102140005C000020F807400207484FF0FF310022F2
:102150000160C90C416000F108011F200A604A605B
:102160000831C1E9000270475C00002010B5FFF79C
:10217000EBFF0020FFF71AFC18F01AFE0446034894
:10218000006800B18047204610BD000074000020A8
:102190000149086070470000740000202DE9F041FB
:1021A00004464FF08050D0F8A0701F4D1E4E103DD9
:1021B00010220021204619F050FF1022002104F1C6
:1021C000100019F04AFF2868401C08D16868401CBC
:1021D00005D1A868401C02D1E868401C07D02868D7
:1021E0006A68A968EB6820616261A161E36100200F
:1021F00000F04EFF8743F80713D13068401C08D128
:102200007068401C05D1B068401C02D1F068401CC9
:1022100007D032687068B168F36822606060A160BE
:10222000E3600020BDE8F0819000001038B54FF069
:10223000805104462248D1F8A010214D0268143D77
:10224000521C04D14268D2431204120C35D0C90783
:1022500033D001684068ADF80000C4F80110BDF843
:102260000000A4F80500A07940F0C000A071286823
:10227000401C0CD06868401C09D0A868401C06D0DF
:10228000E868401C03D0002000F002FF40B110229B
:102290000021E01D19F0E1FE01202070002038BD72
:1022A0002A686968A868EB68C4F80720C4F80B10AE
:1022B000C4F80F00C4F81330EEE70020EDE700008B
:1022C000A400001002210180418000210171E02161
:1022D000417142F67E61C1800149816000207047F2
:1022E000C15E05852DE9F0418F79DDF818E0082FF2
:1022F00001D9DB212CE0DFF8A4C05CF820400CB150
:10230000DC2125E0CC79002C45D064001D680A341E
:102310006619022F01D93D4601E04FF002052E4417
:10232000A6F1010601D93D4601E04FF00205A5F1F5
:10233000010526EA05068D883D44A5F10105A7F1B2
:10234000010725EA07054FF6FF77BD4203D3E721D2
:102350001720FFF7A3F9BEF1000F18D1341B4CF87A
:1023600020402580C879A0700120E07022710868A3
:102370004FF6F072000CE08008882081002003E016
:1023800004EB4007401C7A81CF798742F8D8C8799E
:1023900000FB05601860BDE8F08100001C220020F1
:1023A000034951F82000002800D0807870470000D1
:1023B0001C22002070B50546194850F8214064B32E
:1023C000B5F5706F04D340F225211720FFF766F9A9
:1023D0002946204615F0BEF90146FF2804D02046C4
:1023E000BDE8704015F0DDB9A078B5FBF0F100FB59
:1023F0001150C6B232464FF6F071204615F0BEF9C4
:102400000246FF2809D0B24201D00020E0702946E0
:102410002046BDE8704015F097B9002070BD00005F
:102420001C2200200246094810B550F821401146F0
:10243000204615F08FF90146FF2804D02046BDE85C
:10244000104015F0AEB9002010BD00001C22002085
:102450002DE9F0410C4606468978607886B0014443
:10246000FF2902D94FF482710CE02178814202D910
:102470004FF4847106E004963EB10025700706D043
:1024800040F219111720FFF709F90125F6E74FF07F
:1024900000082C224146664819F0DFFD654F63783D
:1024A000D7E90002B96863F31F6203910095CDE993
:1024B000010204AB424601A90020FFF713FFD7E950
:1024C0000302A37894F80180796963F31F62039192
:1024D0000095CDE9010204AB424601A90120FFF7B6
:1024E00001FFA178E37801EB080000F0FF08D7E9CD
:1024F0000602396A63F31F6203910095CDE9010278
:1025000004AB002201A90220FFF7ECFED7E9090283
:102510002379F96A63F31F6203910095CDE9010203
:1025200004AB002201A90320FFF7DCFED7E90C026F
:102530006379B96B63F31F6203910095CDE90102E2
:1025400004AB002201A90420FFF7CCFED7E90F104D
:10255000A3797A6C63F31F600392CDE90110A0792F
:1025600018B10EF0A7F9ADF8080004AB002201A9DC
:1025700005200095FFF7B6FED7E91210E3793A6D12
:1025800063F31F60CDE90202CDE9005104AB0022E4
:1025900001A90620FFF7A6FED7E91510237AFA6DE8
:1025A00063F31F60CDE90202CDE9005104AB0022C4
:1025B00001A90720FFF796FED7E91810637ABA6ED3
:1025C00063F31F60CDE90202CDE9005104AB42463E
:1025D00001A90820FFF786FE617AA37A01EB0800C3
:1025E00000F0FF08D7E91C01FA6E63F31F60039146
:1025F0000095CDE9012004AB002201A90920FFF7D5
:1026000071FE7837E37A97E8070063F31F610DF1F5
:10261000040C00958CE8070004AB424601A90A208F
:10262000FFF760FE049806B0801BBDE8F081000053
:102630001C2200202427000010B5044680790E4992
:1026400051F82000A8B14FF6F073E17982789142F9
:102650000FD24A1CE27100EB410252899A42F4D037
:1026600000EB41025289A28015F09BF82060002007
:1026700010BD052010BD00001C2200202DE9F041F6
:1026800007464FF6FF703880124850F82140ECB1F1
:10269000A5782079B0FBF5F105FB110632464FF61F
:1026A000F071204615F06AF80246FF280ED0A81BEC
:1026B0001044B0FBF5F105FB11002179084481B20B
:1026C00039802046BDE8F04115F03EB80020BDE855
:1026D000F08100001C2200202DE9F041074610483F
:1026E00050F821503946284615F034F80446FF28A2
:1026F00012D0D5F8060021464FEA3046284615F09C
:1027000050F801463846B04705EB44014FF6F070EB
:1027100048810020BDE8F08143F20200FAE70000A2
:102720001C220020CD9C010088030800000000004E
:102730005F9801001804080000000000AD8E010041
:10274000600108000000000025B7010090000800AB
:1027500000000000D5080100A800080000000000EB
:102760003DB8010000000800000000004FB8010063
:102770008000080000000000D59E010070000800E5
:10278000000000005D9D01006001080000000000E5
:10279000F79F0100E8000800000000003BA00100D6
:1027A00098000800000000002DE9FF4F244C064669
:1027B00081B020689A46934658B1017AB14203D954
:1027C000406850F8260040B143F2020005B0BDE871
:1027D000F08FA5211820FEF761FF1946029815F029
:1027E0001AF8804658460E9915F00BF8054608EB86
:1027F0000500001D87B22068A1463946006814F024
:102800003EFF04001AD0678025802946201D0E9DBA
:1028100007465A460923009514F0A7FE2088414632
:1028200038440A23029ACDF800A014F09EFED9F88D
:102830000000406840F826400020C7E70420C5E7B4
:102840007800002070B5144C23688BB1197A81424E
:1028500012D95A6852F8201071B1002542F8205060
:102860004A88186814F063FF216800200A7A0CE097
:10287000C6211820FEF712FF43F2020070BD4B681C
:1028800053F8203033B9401CC0B28242F7D80868F0
:1028900014F042FF002070BD780000202DE9F041C7
:1028A0000D46040090464FF0000606D00027A00712
:1028B00005D086211820FEF7F1FE0127F7E7CDB1FC
:1028C0001146002014F00CFF0C3000EB85068FB988
:1028D0000A4F04F10C00AA003C602572606000EB16
:1028E000850020600021606819F0B7FB4146386818
:1028F00014F0F6FE3046BDE8F081000078000020BC
:1029000070B5084D286800280AD0002404E020464D
:10291000FFF798FF641CE4B22868007AA042F6D85A
:1029200070BD000078000020094910B50246096812
:10293000002049B10B7A934205D9496851F8221019
:10294000002900D0081D10BDEC211820FEF7A6FEBE
:10295000780000200A4910B502460968002059B1E4
:102960000B7A934207D9496851F82210002902D006
:1029700031F8040B084410BDFA211820FEF78EFE32
:1029800078000020FEB506464418C81800210DE066
:102990005EB1009101910291E51800952560019FBB
:1029A00067609DF8087027722C461844521E120466
:1029B000120CEDD1002E11D0009101910291084925
:1029C0000A6800924A680192097A8DF80810009905
:1029D0002160019961609DF808102172FEBD000020
:1029E000C4C101002DE9F0411C4E45680446002297
:1029F000A1B10120607070888308002004EB4001C1
:102A000004EB80060A830B8400FB035171602118DC
:102A1000401C0A750428F1D3BDE8F08162700020E3
:102A200004EB40010A830A8404EB80014A60211808
:102A3000401C0A750428F3D3708814F0B1FF0746D0
:102A4000708814F0B4FF656020842918A160678441
:102A5000E560A0842161E784DEE700007C000020BF
:102A60002DE9F04768B100261144DFF89C80CFB211
:102A7000002488F80070810705D04E210920FEF758
:102A80000DFE0126F0E71F2B04D84FF6FF7101EA77
:102A9000830509E05900FF2B0CD903F1FF02B2EBCB
:102AA000430F00D211468DB24FF6FC71ED1C0D4064
:102AB00036B109E07C22B2EB430FF4D37C21F2E77C
:102AC000C8F80400A8F8025007EB870104EBC10224
:102AD00000214FF001090FE05EB9D8F8044001EB86
:102AE000810300EB020C04F8339004EBC303C3F83A
:102AF00004C0491C2A44C9B2B942EDD3D21D22F008
:102B00000700BDE8F08700007C00002070B5114888
:102B10000024214602780CE0456801EB810315F89A
:102B2000333023B101EB810105EBC10403E0491C03
:102B3000C9B29142F0D344B10025A57001212046CD
:102B4000FFF750FF2570204670BDA9210920FEF730
:102B5000A5FD00007C000020044810B540888408D2
:102B600014F025FF844200D3204610BD7C000020D5
:102B70000148407870470000840000200148406808
:102B800070470000840000202DE9F8430C460746FA
:102B900016462E2110460D46224614F02FFD804683
:102BA00057B13846414632462B46009414F0DDFCBE
:102BB00003484760047046704046BDE8F883000053
:102BC000840000200248427801784068FFF7DCBFAB
:102BD000840000202DE9F8430F4604461646F720EE
:102BE000052114F00BFD4FF6FC71C01C00EA010535
:102BF000DCB1A00703D095211920FEF74FFD0D4849
:102C000080460460858000240DE0B8F80400D8F800
:102C10000010F72204FB001029460523009614F04B
:102C2000A4FC641CA4B2BC42EFD307FB05F0BDE8D2
:102C3000F88300008C0000207FB5054602980E4600
:102C40001C46410701D0800703D01F214C20FEF70E
:102C500025FD4FF488722946002014F011FE06FB72
:102C600000F10CB1002000E002A814F039FD002CA6
:102C700003D103490D70029A4A6004B070BD000090
:102C80009400002070B5074C05464FF488722178F7
:102C9000002014F0F5FD024629466068BDE870404A
:102CA00014F045BD9400002030B50D490120486066
:102CB000821EC1F808230B4988600023C1F8003246
:102CC000C1F80823084C2360251D28608860C1F8DE
:102CD00008232360286006490448086030BD0000CE
:102CE00000E0004000F0004000F500400000F63F2A
:102CF00008F5014010B5FFF7D7FF14F031FF034985
:102D00000148086010BD00000000F63F08F50140D2
:102D100010B5FFF7C9FF14F023FF00F087F805494D
:102D20000348086000F0B8F8BDE8104000F0DCB8D7
:102D30000000F63F08F501402DE9F84F824638487B
:102D400019F020F8DFF8D8B028B101260BF1010006
:102D5000FF21017000E000264FF48075314C4FF0E8
:102D600000082F1D01216160C4F80081C4F80481AE
:102D7000C4F804A52160DFF8B0901CE0D9F8000089
:102D8000C00618D50E2014F0FAFEEFF31080009064
:102D900072B603212046C4F80413294614F0FCFE41
:102DA00030B93946204614F0F7FE08B919F081F819
:102DB000009800B962B62946204614F0EDFE28B905
:102DC0003946204614F0E8FE0028D7D03946204680
:102DD00014F0E2FE0028C5D106BB9BF801108DF867
:102DE0000010009900919DF8001009B1012500E044
:102DF00000250BF1010080F800800320C4F80803CF
:102E0000C4F80481C4F800810E2014F0B8FE044810
:102E100018F0CFFF15B11120BDE8F88F0020FBE7B7
:102E20003A04002000E0004010ED00E010B5064834
:102E300018F0BBFF18B130211D20FEF72FFC02480F
:102E40000021417010BD00003A04002070B5114906
:102E50000A68EAB100231D4601244A68521C4A60F0
:102E6000092A00D34D600E7904FA06F20E68164264
:102E70000BD0EFF3108372B60C6894430C6003B967
:102E800062B649680160002070BD5B1C092BE4D369
:102E9000052070BD9C0000200248002101604160B7
:102EA000704700009C00002010B5044C2078FF28DB
:102EB00003D013F083FCFF20207010BD0000002021
:102EC00010B5084C617809B10F2010BD13F03CFC1F
:102ED0002070FF2801D0002010BD73211F20FEF7B5
:102EE000DDFB000000000020014900204870704711
:102EF0000000002005498A8E824218BF70470020DA
:102F000081F832004FF6FF708886704760230020FA
:102F10000648074A818E5288914205D190F83200C6
:102F200000281CBF0020704701207047602300204C
:102F30002C04002001494880704700002C04002028
:102F40000848094A818E5288914209D14FF6FF7193
:102F5000818610F8321F19B10021017001207047DD
:102F600000207047602300202C040020074901F155
:102F7000320091F83220012A04BF0020704701225C
:102F8000027003480088888610467047602300203E
:102F90002C0400200749084B8A8E5B889A4206D190
:102FA00091F83220002A1EBF0160012070470020E6
:102FB00070470000602300202C04002009498A8EFD
:102FC000A2F57F43FF3B03D0002101600846704714
:102FD00091F832200349012A1ABF01600120002024
:102FE00070470000602300200149088070470000FE
:102FF0002C0400200549002081F832004FF6FF70B4
:1030000088860349088048807047000060230020BC
:103010002C0400200549002081F832004FF6FF7093
:10302000888603490880488070470000602300209C
:103030002C0400200A4A10B1012807D00EE0507875
:1030400060B1D2F802000860D08804E0107828B19E
:103050009068086090898880012070470020704740
:103060003C040020094A012340B1012818BF7047E1
:103070001370086890608888908170475370086862
:10308000C2F802008888D080704700003C0400200D
:10309000064910B1012803D006E0487810B903E0D2
:1030A000087808B101207047002070473C040020D8
:1030B0000149087770470000BA190020014880785C
:1030C00070470000A40000200148C078704700004D
:1030D000A400002070B5094C06460D46207818B1B2
:1030E000D0212720FEF7DAFA0549002008770121D0
:1030F000044815F09EFBC4E90B6570BDA4000020D8
:10310000BA19002088190020014901204871704730
:10311000A40000202DE9F84FFE4DDDF828C02C78E2
:10312000002C6CD1002A1CBF002BBCF1000F66D014
:10313000C5F81CC0C5E90F014FF00009C5E905231A
:1031400085F8059085F8049085F8029085F801903F
:1031500085F80390DFF8C083A5F80C90A5F80E90D1
:10316000D8F8040000F1A80604460EF0C5FA0DF0E8
:1031700091FD94F972000EF05BFB206A0EF0C4FD25
:10318000A0690EF0B7FD96F833000EF0F7FD98F841
:103190000000002838D0042013F0F6FB616941F6E6
:1031A0004C50814228BF962003D201200EF08AFDA8
:1031B0004D200EF0B3F9D8F8040090F80803002869
:1031C00018BF0EF09BF994F86F1001200DF0DAFF94
:1031D000002808BFBDE8F88FD0480EF01DF9208800
:1031E000FFF7B8FB68632088FFF79EFBA86394F89D
:1031F0007B008DF800009DF8000080BB1DE040F2D0
:1032000045112720FEF74AFA032013F0BDFB616940
:1032100041F64C50814228BF962003D201200EF087
:1032200051FD4D200EF07AF994F86E1000200DF04B
:10323000A9FF0028D0D1BDE8F88F606F78B1B6F84B
:103240004A00B18A88420AD1B4F8781001220844B1
:10325000A6F84A0094F87A00616F12F037F806F188
:103260008800DFF8BCA20FC88AE80F00D6F89800E3
:10327000CAF81900D6F89C00CAF81D00D8F8040056
:10328000012700F1A80290F8C51026291EBF2729A2
:1032900092F81EC0BCF1260F0BD04FF008024FF081
:1032A0000203212918BF22292ED0BCF1240F52D0AD
:1032B00081E098F80010002990F86E1013D090F873
:1032C000E60300287BD0082918BF042970D00828FD
:1032D00018BF04286CD0012918BF012857D000BF9F
:1032E0004FF002016BE090F84203002867D00829F4
:1032F00018BF04295CD0082818BF042858D0012919
:1033000018BF012843D0EBE7BCF1240F23D098F875
:103310000010E9B390F86E1090F86E0110F0040FF1
:1033200018BF10460CD0082918BF042940D008281F
:1033300018BF04283CD0012918BF012827D0CFE7A7
:1033400010F0010F18BF3846EDD110F0020F18BF72
:103350001846E8D133E098F80010C9B190F86E1023
:1033600090F86EC190F867000CEA000010F0040FAE
:1033700018BF104610D0082918BF042918D00828F3
:1033800018BF042814D0012918BF0128A8D100E0D3
:1033900011E04FF0010112E010F0010F18BF3846A4
:1033A000E9D110F0020F18BF1846E4D107E0FFE79B
:1033B0004FF0080103E090F86E100429F8D0A08FB8
:1033C00011F00C0F18BF4FF4296014F092FD218FFB
:1033D000814238BF08464F49887194F86F1011F048
:1033E0000C0F14BF4FF42960B4F8420096F823B0D4
:1033F000B4F84050082937D014F07BFDBBF1000F22
:1034000004BF001D80B2854238BF2846C5B2DFF830
:1034100004B18BF8075001F0EDFD10B12B2D98BFD2
:103420002B252A468BF8085098F8000000B396F830
:103430002300E8B38AF81870D6E92001CAE904012C
:1034400094F86F100120012908BF002343D00229FE
:1034500008BF01233FD0042908BF03233BD008291C
:1034600008BF022337D027E0042114F042FDC5E74E
:1034700096F8220058B38AF81870D6E91E01CAE9F6
:103480000401616941F64C5081422CBF00200420A8
:1034900094F86E10012908BF002312D0022908BF3A
:1034A00001230ED0042908BF03230AD0082900E015
:1034B00016E008BF022304D040F221410620FEF7A7
:1034C000EDF8FB221649CDF800900DF0E7FA012047
:1034D00000F02EFC07E01249CDF800900DF0DEFA66
:1034E000012000F0C7FB0F480068032818BF0B2815
:1034F0001ED0CAF85A90CAF85E90CAF86290AAF82C
:1035000066900948B18A41802188018096F833107D
:1035100001710BE0A4000020E0000020383F000013
:103520006019002050150040BA190020BDE8F88F3E
:1035300040F202214FF02700FEF7B0F82DE9F041EC
:10354000204D06460F461E48696A82B0406891F8D1
:10355000018000F1A80416F0020F15D0A86A48B344
:103560006A89D21C18F0FFFCA86A686201AA694641
:10357000A86B13F068FF009813F0FFFE386001227B
:103580004146A86B13F0B0FE16F0010F04BF02B065
:10359000BDE8F081D4E92002411C42F10000C4E9F9
:1035A0002010207E01280CBF00200120207602B0D0
:1035B000BDE8F08140F25C412720FEF76FF8000083
:1035C000E0000020A40000200248C089C0F3802051
:1035D00070470000A40000200448007800281CBFA9
:1035E0000C2070470020024908777047A400002093
:1035F000BA19002038B51A48017800F13C0449B1E5
:103600002178007849B102280ED040F21E212720EF
:10361000FEF744F800F08EFA0BE0012809D040F2E2
:103620001A212720FEF73AF86068D0F820030DF041
:1036300009FF606890F87B108DF800109DF800106D
:10364000002918BF38BD416F002908BF38BD90F868
:103650007A00BDE838400022114611F037BE000064
:10366000A400002000204870312008700548826EB8
:103670004A60C26E8A60026FCA60B0F87400088245
:103680007047000060190020012984BF01207047A5
:1036900070B51B4C0546A169884700282CD02079BD
:1036A00050BB04F13C000178002908BF012D01D076
:1036B00021B31DBB1348027812F0100F06D1E06A47
:1036C000007810F0100F08BF012001D04FF000006B
:1036D000A36A23B9638913B112F0100F0CD000292B
:1036E0001CBF217B11F0020F03D0216AC978022987
:1036F00004D0A189084301D0012070BD002070BD15
:10370000A4000020B40000202DE9F34FDFF800836F
:1037100083468BB0D8F804004FF0000AA8F13C04AF
:1037200000F1A8078DF814A0CDF818A0207856460F
:10373000D146022804D040F2DF412720FDF7AEFF3A
:10374000A07B10F0400F07D1402062690021904714
:10375000E08940F04000E08197F82300BBF1000FC2
:1037600000F0D380A0B10DF0D3FA0DF0ADFA78B926
:10377000606A417861B10078397EC0F3C000884248
:1037800006D10120607000F0D5F90DB0BDE8F08FD2
:10379000606A41786181002908BFA66203D0A06BEE
:1037A00013F03AFFA062E08940F48070E081606A23
:1037B000F97D0078C0F38000884208BF4FF0010A0D
:1037C00047D0D8F8040006A900F1A80590F8BE007B
:1037D00000283AD002280BD1606B13F05DFD002861
:1037E0004BD0D5E91E01401C41F10001C5E91E0185
:1037F000AE7598F8000000281CBFA87C002809D0EE
:10380000AE74A289314642F01002A28162694FF083
:1038100010009047687C90B16E74FFF791FB90B3F5
:10382000A289082042F00802A28162690021904723
:10383000D5E91E02411C42F10000C5E91E10E87DD9
:1038400001280EBFEE750120E875E08940F4806024
:10385000E081606A397E0078C0F3C000884222D1DE
:1038600001F0C8FBB8B1616AE0790A7802F003029E
:10387000012A18BF022A0BD00DE040F2DA314FF0D6
:103880002700FDF70BFF40F2F1312720FDF706FF7F
:103890004978814203D805A800F090F903E0207927
:1038A00040F01000207197F8220000283FD098F8CF
:1038B0000010D8F8040000290CBF0122002255494D
:1038C0000A76D7E91E23C1E90423416941F64C5227
:1038D000914234BF4FF0040C4FF0000C90F86E0092
:1038E000012808BF00231CD0022808BF012318D0DC
:1038F000042808BF032314D0082808BF022310D0CF
:1039000040F221410620FDF7C9FE002818BF0DF046
:10391000F9F9A078401CA070E08940F40070E081C3
:10392000C1E7FB223B49604600960DF0B7F80C98C2
:10393000002520B9A1780120FFF7A6FE18B10EF0EE
:10394000C7F9012502E0002000F0F2F99DF814000B
:10395000C0B1616A48780090A06AD0B16289D21C77
:1039600018F001FBA06A606209AA08A9A06B13F015
:103970006AFD089813F001FD81460122A06B0099B1
:1039800013F0B2FCB98A2448BAF1000F13D029B160
:103990000DE040F25C412720FDF780FE98F8001012
:1039A00029B1C188002904BF0189002903D04189B8
:1039B00001F101014181BBF1000F14BFC1880189F0
:1039C00001F101011ABFC180A6700181104801F008
:1039D000E7FD069840B113F0D0FCD8F80410401C65
:1039E0000672082201F0B0F9B9F1000F08D0D8F83A
:1039F000041009F1080006701022484601F0A4F9ED
:103A0000002D18BF00F096F80DB0BDE8F08F000053
:103A1000E000002060190020BA1900202DE9F84FBD
:103A2000424E8346A6F13C0570688A4600F1A80420
:103A30002878012804D040F26B412720FDF72EFEA4
:103A4000207C00274FF0010968B12774AA89394604
:103A500042F00402AA816A69042090473078002865
:103A600018BF84F81290296A4FF00308087838EAE2
:103A700000000DD1A07DA0B9AA89022042F0020267
:103A8000AA816A699047286A007838EA000008D05D
:103A9000286A407800280EBF84F816900220A0758E
:103AA00001E084F8168094F8230000282CD03178A7
:103AB0002A7A706800290CBF0121002181F00103DE
:103AC0001B490B76D4E9203CC1E9043C90F86F0017
:103AD0004FF0010C012808BF002310D0022808BFB6
:103AE00001230CD0042808BF032308D0082808BFEE
:103AF000022304D040F221410620FDF7CFFD0C49FE
:103B0000604600970CF0CAFF3AEA0B0004D000218F
:103B10000846FFF7B9FD18B1BDE8F84F00F00AB844
:103B2000BDE8F84F002000F0A5B80000E00000203C
:103B30006019002010B50DF0B1F90DF0ABF8114C83
:103B400000216269E08990470F48017F99B1A0F197
:103B50005A01D1F85A208A66D1F85E20CA66D1F897
:103B600062200A67B1F86620A1F874200222074992
:103B70001D3001F045F9E269217960789047002015
:103B8000207010BDA4000020BA1900206536000086
:103B9000084810B50078022804D040F249212720B7
:103BA000FDF77CFD044901200873BDE81040FFF7D4
:103BB000C1BF0000A4000020BA19002070B526493A
:103BC000264C0126496801F1A805616A0A7802F0CD
:103BD0000302012A18BF022A0ED0032A23D12E7411
:103BE000E289304642F40062E281A28942F0010299
:103BF000A2816269904716E04978A1B1E28942F456
:103C00000062E281A26A002A08BF70BDFB291DD8AC
:103C10006179002908BF067005D06269BDE870406F
:103C2000202000211047287E012806BF002028768A
:103C30002E76606A4078002808BF70BDD5E9201054
:103C4000491C40F10000C5E9201070BD207940F00A
:103C50001000207170BD0000E0000020A4000020D2
:103C600003480078002808BF7047FFF763BF0000D3
:103C7000A40000202DE9F041DFF8AC800746A8F150
:103C80003C04D8F80450E06A606295F8CB10207AC2
:103C900005F1A80600291CBF001DC0B22249002F53
:103CA000496891F86F1002BFFF2895F86E20914285
:103CB00001D00EF02FF896F82300A8B1206B0DF07C
:103CC000C3FD98F8000000280CBF0120002080F000
:103CD000010116480176D6E92012C0E90412216BD1
:103CE000606A0CF077FF04E0606A0DF0ADFD0CF047
:103CF000D1FF3FB995F86F0010F00C0018BF2820D5
:103D00000DF0D6FB686941F64C51884295F86E205B
:103D10004FF0000134BF012000200DF06FFF0220A2
:103D20002070BDE8F0810000E00000206019002054
:103D30002DE9F04FDFF8F4A183B0AAF11C09DAF8FD
:103D400004504FF000088DF80080A9F1200495F888
:103D5000CB10227A05F1A80600291CBF111DCAB29A
:103D600072490028496891F86E1002BFFF2A95F841
:103D70006F00884203D04FF0FF000DF0CBFFB07D05
:103D8000DFF8ACB1012750B1012830D0022841D072
:103D900003284FD040F2FB212720FDF77FFCA079BC
:103DA000ADF80400A5F854004846FFF7F3F8A0B1B9
:103DB000A289216A42F08002A28162698020904734
:103DC0007774D9F80000C0781B283CD14FF001016E
:103DD00005F110000EF098FA35E06A4601A9606B13
:103DE00013F099FB206210B196F85D1011B1C4F880
:103DF00020B028E09DF8001031B9A0F8008080F8CC
:103E00000280012114F015FDBDF80410206A14F0A1
:103E100092FC18E0B5F85400ADF804006A4601A918
:103E2000606B13F078FB206268B940F2E52127202F
:103E3000FDF734FC4846FFF7ADF868B3D9F8000049
:103E4000C0781B28C2D0206A4FF008034FF0030946
:103E5000017801F0F7010170F27D03EAC20241EA44
:103E6000020101F0FB010170327E4FF0040303EA0E
:103E7000820241EA020101F0EF01017039EA010119
:103E800004BFC078022815D0606B13F01EFB002819
:103E900018BFB84605D00DE040F2EE212720FDF70F
:103EA000FDFB206A007839EA000003D0FFF730F804
:103EB00080F00108206A017841EA0811017096F843
:103EC000221000291CBF4178002913D0206B0DF06F
:103ED000BBFC9AF8000000280CBF01210021154806
:103EE0000176D6E91E12C0E90412216A206B0CF09B
:103EF00071FE03E00DF0A8FC0CF0CCFE686941F601
:103F00004C51884295F86F204FF0010134BF0120D9
:103F100000200DF073FEE770206A0188218280780E
:103F2000A074277003B0BDE8F08F0000E00000200F
:103F30008819002060190020913B0000093700001B
:103F40001D3A0000613C00000246074810B50078A9
:103F500038B10648417821B1801C0CF0DBFC01200F
:103F600010BD002010BD000030040020962300206A
:103F7000004870472025002004494A78824286BFC5
:103F8000084490F84201002070470000962300206A
:103F900004494A78824286BF01EB0010823000203B
:103FA0007047000096230020054A01EB410102EB17
:103FB00041010268C1F80A218088A1F80E0170470A
:103FC000962300202DE9F041134C06460025607829
:103FD000002898BFBDE8F081C0B2A84214D904EB14
:103FE0000510823010D0611991F8421161B905EBCA
:103FF000450104EB410707F58571324613F01BFEBE
:10400000B7F80E01A7F80E01681CC5B26078A84287
:10401000E2D8BDE8F08100009623002004494A78E8
:10402000824286BF01EB0010801C00207047000018
:104030009623002008494A78824203D90A1892F848
:1040400042210AB10020704700EB400001EB400024
:1040500000F58570704700009623002010B54FF4DE
:10406000C5720021054817F0F8FF054800210170CE
:1040700041704FF46171418010BD00009623002013
:104080003004002070B50C4605460CF0CBFE0CF059
:1040900059FC0A482A46007868B1094B597851B151
:1040A000002C0CBF03F18200981C0CF033FC0CF0C8
:1040B00073FC012070BD002070BD000030040020A2
:1040C000962300200B4B93F801C084459CBF002031
:1040D0007047184490F80201C0EBC000184490F8F3
:1040E00052310B70D0F853111160B0F85701908025
:1040F000012070479623002010B500F083F80828AF
:1041000008BF10BD01460B4A002092F801C0BCF167
:10411000000F0CD9131893F802318B4203D10828F1
:1041200018BF10BD03E0401CC0B28445F2D808207F
:1041300010BD0000962300200246064810B500EB93
:104140000110012182300CF0E5FBBDE810400CF0BD
:1041500023BC0000962300200148408870470000DF
:104160003004002070B5012516462C4600F04AF8B0
:10417000082821D0144900234A78002A1CD900BFFE
:1041800001EB030C9CF802C1844518D1082B13D015
:10419000002E18BF3370487898420DD901EB0310F8
:1041A00010F1020F08D0C81890F84A4190F83A016F
:1041B00001280CBF0125002545EA040070BD5B1CE9
:1041C000DBB29A42DCD8F7E79623002006494A780A
:1041D000824206D9084490F83A01002804BF012021
:1041E0007047002070470000962300200148407867
:1041F00070470000300400200149487070470000FB
:10420000300400202DE9F00F204B0246002093F8E7
:104210000080B8F1000F35D90F784E788D78CC78C2
:1042200091F804C091F805A0C0EBC001194491F8C1
:10423000529191F853B182EA090987EA0B0BD944EC
:1042400091F854B186EA0B0BD94491F855B185EA3F
:104250000B0BD94491F856B184EA0B0BD94491F871
:1042600057B191F858118CEA0B0BD9448AEA010135
:1042700011EB090F04BFBDE8F00F7047401CC0B23E
:104280008045D1D8BDE8F00F082070479623002064
:1042900070B58CB000F110041D4616460DF1FF3CC0
:1042A0005FF0080014F8012C8CF8012014F8022D9E
:1042B0000CF8022F401EF5D101F1100C6C460DF1E7
:1042C0000F0108201CF8012C4A701CF8022D01F87F
:1042D000022F401EF6D1204613F06BFC7EB16A1E01
:1042E00004F130005FF0080110F8013C537010F841
:1042F000023D02F8023F491EF6D10CB070BD08988D
:104300002860099868600A98A8600B98E8600CB06B
:1043100070BD000070B501260446002571B1584AF1
:10432000012932D002297BD0032918BF70BD04F1C6
:10433000CE01BDE87040CD3013F0B1BE4FF48362C2
:10434000002117F08AFE84F8CD604E4AC4F8162189
:104350000722C4F81A2194F81621FE2122F0040243
:1043600084F8162184F84E117F2184F8C110464943
:1043700004F1A800C4F8B0100021C0F8B050C0E9A2
:104380000011202084F8940370BDA4F8265384F80B
:104390001B5360693D49B2FBF0F20144B1FBF0F1FF
:1043A000C4F8EC1040F6B831A4F8F010E38BA4F890
:1043B000F650B4F8FAC0521C0CFB00FCBCFBF0FC3D
:1043C000A4F8FAC040F2712C03FB0CF300EB0313CA
:1043D0005B1EB3FBF0F3A4F8F830A4F8FE202C4ADF
:1043E00004F1A80100EB0212521EB2FBF0F24A6483
:1043F0000A6C4243B2FBF0F008642631481E13F009
:104400004EFE17F032FD38B1A06900F0A7FE00287B
:1044100004BF84F8086370BD84F8085370BDFFE7DB
:10442000D4F8EC13B4F8F2C3636904F1A800A4F85B
:10443000F650B4F8FA40B2FBF1F25C43B4FBF1F48D
:10444000A0F8524040F271240CFB04FC01EB0C1C60
:10445000ACF1010CBCFBF1FCA0F850C0521CA0F860
:104460005620B0F84820624301EB0212521EB2FB04
:10447000F1F24264026C5A43B2FBF1F1016470BD87
:10448000005A62022F4904C400E0FCFF7FC3C90147
:10449000389C1C002DE9F05F044690468A464FF098
:1044A0000109084614F09FF90546504614F09DF99D
:1044B000074610F0010F18BF01262BD015F0010F91
:1044C00018BF4FF0010B30D056EA0B0008BF4FF079
:1044D00000090CF05DF9384208BF00260CF058F9CD
:1044E000284208BF4FF0000B94F86E00B0420CBF9A
:1044F0000020304688F8000094F86F10594508BF36
:104500004FF0000B88F801B0002808BFBBF1000F86
:1045100028D118E010F0020F18BF0226CED117F0F4
:10452000040F14BF08260026C8E715F0020F18BFB5
:104530004FF0020BC8D115F0040F14BF4FF0080B59
:104540004FF0000BC0E7504614F03CF9B4F8BC1033
:10455000401A00B247F6FE71884201DC002801DCF7
:104560004FF0000916B1082E10D01FE094F86E002D
:10457000012818BF022819D0042818BF082805D020
:1045800040F2D7214FF00600FDF788F894F86C014F
:1045900001280BD1B4F87001012894F86E0008D0FE
:1045A000082803D05FF0080088F800004846BDE8FE
:1045B000F09F042818BF0420F6D1F3E741F64C52CF
:1045C00091423DBF0549A1FB0010400940F2E24184
:1045D00028BFB0FBF1F080B2704700001F85EB519F
:1045E00041F64C5291423DBF0549A1FB00104009E4
:1045F00040F2E24128BFB0FBF1F0C0B270470000CA
:104600001F85EB5130B40022A1F1010CBCF1000F69
:1046100012DD431E11F0010F08BF13F8012F5C7863
:104620005FEA6C0C08D000BF13F8025F22435C788D
:104630002A43BCF1010CF7D1491E5CBF405C024328
:10464000002A0CBF0120002030BC7047074991F9B7
:10465000001008441428C4BF1420704710F17F0FC5
:10466000B4BF6FF07E0040B2704700004A040020E3
:10467000024A002111705170704700004A04002066
:1046800008B57F208DF8000068460DF029FB002852
:1046900004BF9DF9000008BD9DF90010074840784F
:1046A000404240B208441428C4BF142008BD10F191
:1046B0007F0FB4BF6FF07E0040B208BD4A040020F7
:1046C000014890F9010070474A040020014A107027
:1046D000517070474A040020014890F9000070476B
:1046E0004A04002010B517F0E7F8074991F90010C7
:1046F00008441428C4BF142010BD10F17F0FB4BFAC
:104700006FF07E0040B210BD4A040020074908B592
:1047100009788DF800109DF8001000291CBF0020BA
:1047200008BD034917F017F9012008BD4C0400200B
:104730004D04002010B5054CFF2121700146601C7E
:1047400017F009F90020207010BD00004C04002073
:1047500070B581EA11418BB2C47A83EA020100226A
:1047600001F0FF0C090A91FAA1F19CFAACFC090EC8
:104770004FEA1C6C4CEA012101EB011C521C0CEBB2
:104780000301D2B289B2032AEAD381EA0302DFF835
:1047900088C000216346E2FB0C3109096FF0240355
:1047A00001FB0321C9B200EBD10301F0070C5D78D6
:1047B000012303FA0CFC15EA0C0F1CBF084670BD60
:1047C00004FB02F1090C491CC9B24FF0000C00BFF8
:1047D00000EB0C04A2798A4227BF00226478891A70
:1047E000C9B20AD303FA02F52C421CBF491EC9B252
:1047F00071B1521CD2B2082AF4D30CF1010202F0BA
:10480000FF0CBCF1050FE3D39D214620FCF746FFCA
:1048100002EBCC00C0B270BD53E4B36E70B5044679
:1048200090F8300008B1252801D9122070BD002A67
:1048300004BF002070BD94F8250010B1012851D0AC
:1048400048E094F8320094F831102B4B01FB020041
:1048500000251A462946E0FB032109096FF02402CE
:1048600001FB0200C0B204EBD00284F8320000F079
:10487000070192F82620012303FA01F10A421EBF24
:1048800084F83300284670BD94F83010B0FBF1F284
:1048900001FB1200401CC1B25FF0000004EB000CF1
:1048A0009CF82B208A4227BF00229CF826C0891A38
:1048B000C9B20BD303FA02F61CEA060F1CBF491E4D
:1048C000C9B249B1521CD2B2082AF3D3401CC0B2BB
:1048D0000528E3D31F2070BD02EBC00084F833002D
:1048E000284670BDA28A896904F12500FFF730FFD0
:1048F00084F83300002070BD53E4B36E417841B1B9
:10490000C0782B2803D2044A105C884201D10120D0
:104910007047002070470000CDC1010010B5012292
:10492000C1702B293CBF064A525C06D3FF2904D034
:1049300040F274412A20FCF7B1FE427010BD000025
:10494000CDC101000449897D01F0040108430CBF79
:104950000120002070470000482200200348807D8D
:1049600010F0010F0CBF01200020704748220020EA
:1049700010B5017A81B101291CBF002010BDC28889
:10498000036880885FF0010100F00CF8002808BF80
:1049900000F06CF8012010BDC288036880880221F5
:1049A000F2E700002DE9F04385B0884699461546A8
:1049B000064602A913F0D0F900284CD10398002D27
:1049C00000F1A80404BF012084F8240043D030463D
:1049D000FDF7C0FF07000CD0294612F049FD010089
:1049E00003D021484088854207D905B00020BDE8A2
:1049F000F08367212B20FCF751FE6A46384612F0FF
:104A000030FD009800260680867094F82410002956
:104A100018BF4FF00208414613F00BFF00982A46DA
:104A20004946C01C17F09FFA2946384612F0D5FCBB
:104A3000A8B19DF8080060B1039890F81A0328B156
:104A4000039880F81A63039814F092FD0398A0F875
:104A5000126384F8246005B00120BDE8F0837C2156
:104A60002B20FCF71BFE000048220020084882B0E3
:104A7000007A8DF800009DF8000000281CBF02B0ED
:104A80007047022202B00349014800F05DB90000FE
:104A9000642200209D8801002DE9F84FDFF85CA218
:104AA000974F83464FF00108002578682E46007A1C
:104AB0008DF80000009800909DF80010102908D192
:104AC0009AF8170028B1BAF81800002808BFBDE806
:104AD000F88F28463C6914B3217A8DF800100099AC
:104AE00000919DF80020D2B10028F2D1B4B3207A11
:104AF0008DF800009DF8009004F108000521017078
:104B0000A9F102000F2880F0EC80DFE800F02B39DB
:104B100045EA7E7093704F4F707070B5D9007C6815
:104B2000227A8DF80020009A00929DF80030012B27
:104B300008BF0446D8D0EFF3108172B622687A60BD
:104B400001B962B6217A8DF80010009900919DF8A4
:104B50000020002A0CBF40463C61C5E7FFE700206B
:104B6000BDE8F88F626832B159462046904704206C
:104B700060F307068CE040F2C3111020FCF78EFDB5
:104B8000626822B1594620469047064680E04FF4BD
:104B9000E6711020FCF782FD616811B1204688475C
:104BA00076E04FF4EB711020FCF778FD5548036870
:104BB000002B6DD060684A46594600909847042003
:104BC00060F307069BF800001E2805D01B285FD164
:104BD0009BF8040000285BD0009804210089FDF7B1
:104BE0007BFD18B340F2EB111020FCF757FD46484F
:104BF0000368C3B360684A4659469847042060F387
:104C00000706B9F10D0F11D042E0626832B1594682
:104C1000204690470AF01AF828B107E040F2112127
:104C20001020FCF73BFD07F017F8E0B104203D61D0
:104C3000BDE8F88F6068B8B104882046FDF78AFEA9
:104C4000B0B18BF801500F218BF80010ABF8064083
:104C5000ABF808808BF80480002112F0B1FC04202E
:104C60003D61BDE8F88F13E0E5211020FCF716FD4B
:104C7000C5211020FCF712FD8BF801501F208BF886
:104C80000000D4F80900CBF80400042060F3070604
:104C9000C6F30720012808BF84F8089027D0EFF357
:104CA000108072B6217A8DF800109DF80010052949
:104CB00013BF002925723D6165F30706B8B915E0F9
:104CC0001248026822B1606830B1008859469047A6
:104CD00002203D61BDE8F88F4FF410711020FCF701
:104CE000DDFC40F24A211020FCF7D8FC62B616F039
:104CF000FF0F3FF4DAAEF0B2BDE8F88F4822002093
:104D000078220020F0000020EC000020E8000020C5
:104D10000A4910B508700A48002141618161C161EA
:104D200001624162122217F098F90648012100F150
:104D30000C021170011D4160016010BD5204002081
:104D4000642200207822002038B5037A8DF80030E4
:104D50009DF8003023B140F2C2211020FCF79EFCE8
:104D6000F0B1416000F108010A70EFF3108372B6F0
:104D7000DFF844C0C0F800C0ACF104014A6852B189
:104D8000127A8DF80020009A00929DF80040012CC4
:104D900008BFC1F800C00A681060086033B904E0B9
:104DA00040F275211020FCF779FC62B603480078C8
:104DB000BDE8384011F0E6BC7C22002052040020FF
:104DC000094810B5002141618161C1610162416200
:104DD000122217F042F90548012200F10C010A7075
:104DE000011D4160016010BD642200207822002076
:104DF0000249014808607047754E0000E800002035
:104E000038B5037A8DF800309DF80030002B1CBFB8
:104E1000027238BDF0B1416000F108010A70EFF391
:104E2000108372B6DFF844C0C0F800C0ACF10401D2
:104E30004A6852B1127A8DF80020009A00929DF8CB
:104E40000040012C08BFC1F800C00A68106008606B
:104E500033B904E040F275211020FCF71FFC62B664
:104E600003480078BDE8384011F08CBC7C2200205B
:104E70005204002038B50C0016D0A08000216172C9
:104E8000FDF752FD054612F0CCFA010011D06A463A
:104E9000284612F0E6FAE08080B1FB2813D940F2F0
:104EA00023111020FCF7FAFB40F213111020FCF73D
:104EB000F5FB4FF48E711020FCF7F0FB40F221114E
:104EC0001020FCF7EBFB009813F05CFC012818BFE6
:104ED000022805D040F233114FF01000FCF7DEFB42
:104EE00020722068B0B10099E288C91C17F03BF825
:104EF000284612F05DFA90B10021284612F060FBBE
:104F000090B10C48C17D002908BF38BD018B491EF6
:104F1000018338BD4FF49D711020FCF7BFFB40F2B8
:104F20003F111020FCF7BAFB4FF4A2711020FCF7E0
:104F3000B5FB00004822002030B45081B1F808C011
:104F4000A2F80CC08B89D38148891082CC89548205
:104F5000CD8DA54204BF4C8D844206D10C8E9C425F
:104F600002BF8B8D6345002301D04FF00103137501
:104F70004885508AC88590898885D089088630BC44
:104F80000149104613F084BC0150000030B490F881
:104F90006E508C88B1F808C015F00C0F1BD000BF04
:104FA000B4F5296F98BF4FF4296490F86F5015F04D
:104FB0000C0F17D0BCF5296F98BF4FF4296C4A88A5
:104FC000C988A0F84C20A0F85010A0F84E40A0F8D6
:104FD00052C030BC7047002B1CBF157815F00C0F69
:104FE000DED1E2E7002B1CBF527812F00C0FE1D1AA
:104FF000E5E70000014800787047000053040020F6
:1050000038B5A0F11805007D0C4600F00100FFF74F
:1050100099FC0021002818BF00910ED16170162064
:105020002070D5F82200D5F82610D5F82A20606027
:105030000348A160E26040680090BDF8000038BD00
:105040005451000070B5B0F838C012F00C0F0CF1DC
:10505000040C1FFA8CFC4FF434751CBF05EB8C1C40
:105060001FFA8CFC0FD1012A04BF4FEACC0C0CF1C3
:10507000500C06D0022A04BF4FEA8C0C0CF12C0C09
:1050800060D11FFA8CFC12F00C0F18BF4FF429648A
:1050900006D1B0F84E60B0F84A40A64238BF344658
:1050A000644538BFA446B0F84040241DA4B213F0B4
:1050B0000C0F1CBF05EB8414A4B20AD1012B04BF52
:1050C000E400503404D0022B04BFA4002C3439D1A6
:1050D000A4B213F00C0F14BF4FF42960B0F84200D3
:1050E000A04238BF04461A48007898B113F00C0F5C
:1050F00018BF4FF4696012D0844228BF204604468E
:1051000012F00C0F18BF4FF4696012D0844528BF0D
:10511000604684460CEB04000844801D70BD012BE2
:1051200008BF4FF4E470E7D0022B08BFE820E3D0BB
:1051300008E0012A08BF4FF4E470E7D0022A08BF54
:10514000E820E3D040F223210620FCF7A7FA000074
:1051500053040020040000000400000070B46FF04D
:105160001F02010C02EA90251F23A1F5AA40543822
:105170001CBFA1F5AA40B0F1550009D0A1F52850F7
:10518000AA381EBFA1F52A40B0F1AA00012000D123
:1051900000204FF0000C62464FEA0C048CEA010636
:1051A000F6431643B6F1FF3F11D005F001064FEA72
:1051B0005C0C4CEAC63C03F0010652086D085B0823
:1051C000641C42EAC632162CE8D370BC704770BC2F
:1051D0000020704710B50C4C08212046FCF710FB4E
:1051E0002068002804BF60680028F5D0074C00BF85
:1051F0004FF008012046FCF703FB2068002804BF9D
:1052000060680028F4D010BDF4000020FC000020ED
:10521000094A0A48D2E9001348434B4083EAB111D6
:1052200081EA432111604FEAF0604FEAF34100EB5D
:105230008000516070470000F4000020BB79379E69
:10524000094A0A48D2E9001348434B4083EAB111A6
:1052500081EA432111604FEAF0604FEAF34100EB2D
:105260008000516070470000FC000020BB79379E31
:1052700070B5A0F1340530F8DC6C1B480C460168B1
:1052800000291CBF284688471848016800291CBF10
:1052900030468847002060700C2121702071A4F8EE
:1052A000056095F83D00E0713046FDF73DFB11F0DB
:1052B000EFFFA8B13046FDF71DFE00213046FDF797
:1052C0000BFA01213046FDF707FA002818BF70BD20
:1052D00007480068002808BF70BDBDE8704000475F
:1052E00073216320FCF7DAF9040100200C0100208F
:1052F0000801002070B50278002A0CBF01250025A6
:1053000040680E1D00F1A8043DB10023A27F19469C
:10531000204612F056FD20B105E0207B10F0010F71
:1053200001D0012070BD3168124B7068194041F600
:105330000702C4F86E101040C4F8720094F871208F
:10534000012142F0080284F871200020A4F85A00DC
:1053500025B184F85C100420A07708E094F85C0084
:10536000401C84F85C00E06840F00100E060002030
:1053700070BD00002F4904F710B5041D0BF002FAB0
:10538000044A41F60703024001EA0300226060601C
:1053900010BD00002F4904F72DE9F84303780746B4
:1053A000002B0CBF4FF001084FF000087E6801F1A0
:1053B000040906F1A80406F5DC7596F8C520072156
:1053C000204612F0FEFC002804BF0120BDE8F8834F
:1053D000D9F80400D9F80010194B41F6070219401A
:1053E0001040C4F86E10C4F8720094F871100020D8
:1053F00041F0080184F8711084F858006077B8F122
:10540000000F1CBF796881F8730195F868108DF85A
:1054100000109DF8001081B93188A5F86A1085F850
:105420006900D9F80000E866D9F80400286702226C
:10543000044905F16000FFF787FC0020BDE8F88310
:105440002F4904F7398C010070B540680D1D00F13B
:10545000A8040BF097F941F60702054B114094F8A8
:105460006E201840024062F307002860696070BD3A
:105470002F4904F7416882B001F5DC7091F82022D1
:105480008DF800209DF80020002A1CBF02B0704754
:105490000988A0F86A101A2180F8691002220249CE
:1054A000603002B0FFF750BC398C01002DE9F041AB
:1054B00003780E46002B0CBF012700274068082107
:1054C00000F1A80490F8C520204612F07AFC78B9C3
:1054D0003FB10023A27F1946204612F072FC20B192
:1054E00006E0207B10F0020F02D00120BDE8F08121
:1054F00094F85F004FF0000510F0020F1BD130460A
:1055000013F0B1F984F86900B6F80500A4F86A0050
:10551000B6F80700A4F86C0094F85F0040F00200B1
:1055200084F85F0010F0010F0AD002221B4904F139
:105530006000FFF765FC94F85F0010F0010F24D1C4
:105540008FB10023A27F1946204612F03AFC30B1F9
:105550000120A07784F85C00A4F85A5015E0482197
:105560004020FCF79BF8E06810F0020F03D04F21B9
:105570004020FCF793F840F00200E06094F85C00F3
:10558000401C84F85C00A4F85A50607F012804BFD6
:10559000657784F858500020BDE8F0812D8D01001A
:1055A0002DE9F84F4768064607F1A809FFF768F8A4
:1055B000054670687F2D00F1A80480F8C15008BF2F
:1055C000BDE8F88F94F83300D6F80480A0764548FB
:1055D000A1688268C2F580536B43514303EB2131CC
:1055E000A160417900293DD0716890F9002001F156
:1055F000A80AD1F8B01001F50061091349B291422F
:1056000007DA90F90200494249B2084400F3070062
:105610000AE090F901208A4224DA90F90300494215
:1056200049B2084400F30700E0B1DAE900016FF085
:105630000042514071EA000014D016F000FBDAE994
:105640000023801A71EB03000CD3D6F804A00AF5EE
:10565000DC7B0BF0BFFF8AF86F0023490BF1CC0015
:1056600013F019F994F91B000021281A48BF404291
:1056700098F82D20824210DCFF2A0ED0207F401C9B
:10568000C0B2207798F82E20904202D8E07E7F2882
:1056900003D10020E5762077012197F82C0001281E
:1056A00018BFBDE8F88F002908BFBDE8F88F706803
:1056B00090F8C0118DF800109DF8001000F5DC7016
:1056C000002918BFBDE8F88F3988418199F8191071
:1056D000017399F81A104173BDE8F84F022203498B
:1056E000FFF732BB10010020F1560000E78D0100EA
:1056F0002DE9F041A0F52175A0F5EE7482B095F882
:105700006F0014F09BFC8046A0682E4E00F50060F0
:10571000001396F9001040B2884207DA96F9021099
:10572000404240B2084400F307070DE096F901102B
:105730008142A4BF02B0BDE8F08196F90310404257
:1057400040B2084400F30707002F04BF02B0BDE8D1
:10575000F0816FF00042D4E90001514071EA00008D
:1057600004BF02B0BDE8F08116F069FAD4E9002365
:10577000801A71EB03003CBF02B0BDE8F0812888BD
:10578000694612F0E9FA18B185217A20FBF786FF05
:1057900008F10100C1B202233A46684614F08FFCBA
:1057A00000281CBF02B0BDE8F08130790649A0FB9B
:1057B000015616F044FA40197141C4E9000102B0E3
:1057C000BDE8F0811001002040420F002DE9F843B0
:1057D00091F801C00A788C784FEA1C6342EA0C22E7
:1057E00042EA044243EA1443CC784FEA142C42EADA
:1057F00004640A7943EA0C031A434979012842EA0E
:10580000012108BF41F480310D466A46204600F070
:1058100095F800281CBF0120BDE8F883DFF8608000
:1058200098F8000098F80110884204BF0020BDE8F5
:10583000F8839DF80090484515D9D8F80410A0EBDE
:10584000090C01EBC00300220CF0FF0C861A01EBDF
:10585000C606521C56E9027663E80276ACF1010CEA
:105860001CF0FF0CF2D1D8F80410401C01EBC90168
:10587000C1E9004588F800000120BDE8F883000078
:105880001C01002010B510F0070F03D06321482041
:10589000FBF704FF20B1034A5170506000201070E4
:1058A000C80010BD1C01002038B54B780A784FEABB
:1058B000136C8C7842EA0323CA7843EA04434CEA27
:1058C000144C43EA02634CEA122291F804C049796D
:1058D00042EA0C0242EA0121012808BF41F480316A
:1058E00018466A4600F02AF8002808BF38BD0C4860
:1058F0000178491EC9B201709DF800208A420DD27C
:105900004068891A00EBC200C9B20830491E70E82D
:10591000022311F0FF01E0E80423F7D1012038BD94
:105920001C01002001490020087070471C01002064
:1059300001484078704700001C0100202DE9F0016B
:10594000294E002313703378002B44D05B1EDBB24A
:105950004FF0000C012BC8BF756810DD0CEB030481
:10596000640805EBC407D7E90087B8EB00088F414E
:1059700034BFA4462346A3EB0C04012CEEDC76686E
:1059800006EBCC05D5E9004580EA040781EA050865
:1059900057EA080708BF82F800C020D0041B71EB4B
:1059A00005043FBF82F800C00020BDE8F001704749
:1059B00006EBC30CDCE9004C80EA040581EA0C0626
:1059C000354308BF13700AD0001B71EB0C0032BFC7
:1059D0001370581C10700020BDE8F0017047BDE83E
:1059E000F0010120704700001C0100202DE9F0416A
:1059F0000446807C002816BF02280020012084F87D
:105A0000680018B3607E68B3D4F81300C4F8690066
:105A1000B4F81700A4F86D00A07C022816BF032874
:105A200001210021A1764FF00800E07694F868008B
:105A30004FF001074FF00008012804BF94F86E20D2
:105A400012F0C00F1BD0012811D016E004F169013B
:105A50000020FDF7EFFA0028DED140F2BA412D20F8
:105A6000FBF71CFE40F2BE412D20FBF717FE94F819
:105A70006E0000F0C000402801D0002000E00120AE
:105A8000207731B194F86F0004F17001FEF734FB18
:105A9000E076FEF761FB3749A0FB016516F0CFF811
:105AA00080196941C4E918010026E07EFEF770FA0A
:105AB0000546A07E002818BF002D03D0E07EFEF72B
:105AC0005BFA58B194F8820000281CBF207F0028A0
:105AD0001DD094F8680001280ED013E084F8687097
